:03000000020E06E7
:0C0E0600787FE4F6D8FD758164020E4D83
:0800030012162D12197B80FB7F
:10003E00439A31539BCE75803143A1D353A22C7575
:0C004E00A0D34391305392CF7590302224
:10162D0012198112194012002E12192C12003E129D
:10163D0019221215887D807C257F06120F117D8061
:10164D007C257F0612107F12100712001E7F0102EB
:02165D00174133
:06197B001200260207B372
:10174100EFFD3395E0FCD3ED9401EC64809480408F
:10175100037F0222ED64014C7005D2AF7F0122EFBD
:0A1761003395E04F7003C2AFFF2282
:0C002E0043A12053A2DFC2A5756201228D
:1010F200E4FF7E40FDFCAB3CAA3BA93AA839C312EF
:101102000164704BE55E7005755E01055FE55F3059
:10111200E01EC3E56194B8E560940B50090561E5F2
:10112200617033056022E4F560F561D2A5F56222B3
:10113200C3E56194B8E560940B50090561E56170FF
:1011420015056022E4F560F561C2A575620122E42D
:07115200F55EF560F5612276
:10158800758E07438901758A3C758CF6C28CD2A981
:10159800D28C438920758B10758D10C28ED2ABD238
:1015A8008EE4F5C9F5C875CBFE75CA70C2CAD2AD4E
:0715B800D2CAF5B8F5B92213
:03000B000212FEE0
:1012FE00C0E0C0F0C083C082C0D075D000C000C0B6
:10130E0001C002C003C004C005C006C007758A3CF8
:10131E00758CF61218841214151210F2D007D0061E
:10132E00D005D004D003D002D001D000D0D0D082CE
:07133E00D083D0F0D0E032B3
:03001B00020022BE
:0100220032AB
:03002B000214D3E9
:1014D300C0E0C0F0C083C082C0D075D000C000C0DF
:1014E30001C002C003C004C005C006C007C2CF12BA
:1014F300176BD007D006D005D004D003D002D0019B
:0D150300D000D0D0D082D083D0F0D0E03224
:0418B300C101C103AB
:100F11008F088C098D0A5391F343920C43985043E7
:100F21008E02438920438780AF08EF3395E0FEFDB1
:100F3100FC7B407A42790F7800120108C006C00795
:100F4100AE09AF0AAB07AA06E4F9F8D007D006123A
:100F510013D178081201888F8DAF08EF3395E0FE29
:100F6100FDFC7B407A42790F7800120108C006C06F
:100F710007AE09AF0AAB07AA06E4F9F8D007D00615
:0C0F81001213D18F8BC28EC2ABD2AC22F7
:10107F008F088C098D0A53A1FC43A203758FC0758D
:10108F009D50AF08EF3395E0FEFDFC7B407A42792F
:10109F000F7800120108C006C007AE09AF0AAB07F0
:1010AF00AA06E4F9F8D007D0061213D18F9EAF0825
:1010BF00EF3395E0FEFDFC7B407A42790F7800120A
:1010CF000108C006C007AE09AF0AAB07AA06E4F9CC
:1010DF00F8D007D0061213D178081201888F9575B2
:0310EF00A9012232
:081953008F993001FDC2012251
:06168F008B138A1489157B
:10169500E4F53DC3E53D9407748094805017AB1382
:1016A500AA14A915853D8275830012005EFF1219E3
:0716B50053053D80DE7F00BC
:0116BC00220B
:081457008F088D098A0A8B0B36
:10145F007E007F077D007B007A00790C1202838566
:10146F00080C85090DE50AF50EE50BF50FE50C25C2
:10147F000D250E250FF51075110D75120A7B007ACB
:06148F0000790C02168F2B
:08195B008F9F3002FDC2022241
:0615BF008B138A1489154C
:1015C500E4F53EAF3EEF3395E0FEC3EF9407EE64DE
:1015D5008094805019AB13AA14A915EF3395E08FA9
:1015E50082F58312005EFF12195B053E80D57F00F0
:0115F50022D3
:081495008F088D098A0A8B0BF8
:10149D007E007F077D007B007A00790C1202838528
:1014AD00080C85090DE50AF50EE50BF50FE50C2584
:1014BD000D250E250FF51075110D75120A7B007A8D
:0614CD0000790C0215BFBE
:0E18E700E54A30E706E4F54A7F01227F002241
:0A1901003000FDC200859F3FAF3F9C
:01190B0022B9
:10138C001219018F49E54A54807039E54A6440705E
:10139C0009EF640A702B754A8022E549640D7004CC
:1013AC00754A40227442254AF8A649054AE542642A
:1013BC00FA6003E4F54AD3E54A94077480948040BC
:0513CC0003E4F54A22D4
:1012B4001218E7EF6043E544FEE5458E4CF54D7E9C
:1012C400007F077D007B007A007942120283E54C9F
:1012D4007022E54D24BC601024117018E54070198B
:1012E400754001F541021803E541700D754101F5A2
:0912F40040021825E4F541F54023
:0112FD0022CE
:030023000218D8E8
:0F18D800309904C299D201309804C298D20332D9
:03003B0002171693
:10171600C0E0C0D075D000C000C007E59D30E1052F
:10172600539DFDD202E59D30E008539DFED2001286
:0B173600138CD007D000D0D0D0E032E0
:04001E0043CF10229A
:0400260043CF102292
:0419810053CF4022DE
:10180300AF64EF3395E0FEEF640F4E7014F524F5EB
:1018130023F522F521753711753833752501756464
:0218230064223D
:10182500AF64EF3395E0FEEF64644E7014F524F574
:1018350023F522F521753722753844752501756420
:021845000F2270
:101510007B007A00792612165FEC4D4E4F602D7BD2
:10152000007A0079267F647E007D007C00121868B6
:10153000E537FB3395E0FA7DFB7FFA121457E53867
:0D154000FB3395E0FA7DFB7FFA1214952233
:1007B300900063E020E7030209C4547FF01209DDCF
:1007C3008F3C8E3B8D3A8C3912024908020000009F
:1007D30008086C00000010089A0000002008CA00F6
:1007E30000100008FA00004000091E000080000904
:1007F3004D000400000976000800000000099FE492
:100803007F08FEFDFCAB24AA23A922A821C3120161
:100813006470030209C1E56270030209C1E475242F
:1008230008F523F522F5217525010536E53630E077
:100833001CAF64EF3395E0FEEF640F4E60030209D3
:10084300C17537117538337564640209C1AF64EF3C
:100853003395E0FEEF64644E60030209C1753722ED
:1008630075384475640F0209C1E47F10FEFDFCABCB
:1008730024AA23A922A821C312016470030209C177
:10088300E56270030209C1E4752410F523F522F52E
:10089300211215F60209C1E47F20FEFDFCAB24AA58
:1008A30023A922A821C312016470030209C1E562CE
:1008B30070030209C1E4752420F523F522F521759F
:1008C3003703F5250209C1E4FF7E10FDFCAB24AA22
:1008D30023A922A821C312016470030209C1E5629E
:1008E30070030209C1E4F524752310F522F521757F
:1008F3003709F5250209C1E4FF7E40FDFCAB24AABC
:1009030023A922A821C312016470030209C1E4F5DB
:1009130024752340F522F5210209C1E4FF7E80FD01
:10092300FCAB24AA23A922A821C3120164700302E9
:1009330009C1E56270030209C1E4F524752380F55A
:1009430022F521753701F5258074E4FFFE7D04FC53
:10095300AB24AA23A922A821C31201646060E56223
:10096300605CE4F524F523752204F521753702F55F
:1009730025804BE4FFFE7D08FCAB24AA23A922A813
:1009830021C31201646037E5626033E4F524F52383
:10099300752208F521753704F5258022E4FFFEFD55
:1009A300FCAB24AA23A922A821C3120164600FE48B
:1009B300F524F523F522F521E5257002F537121903
:1009C30085E4FFFEFDFCAB24AA23A922A821C312C0
:0A09D300016470031212B402151043
:0A192200439A01539BFE75640F22E7
:10176B000563AF63EF3395E0FED3EF9464EE6480D3
:10177B0094804003E4F563C3E5646480F8E5636437
:0A178B0080984003C28022D2802221
:0A192C00439A06539BF95380F922F9
:10141500E55C601E0559E55970020558D39420E531
:10142500589403400DE4F558F559F55C755D015385
:1014350080F9E55D601B055BE55B7002055AD39499
:1014450020E55A9403400AE4F55AF55B755C01F50D
:021455005D2216
:1015F600AF57EF3395E04F70177557015380F94396
:101606008002F558F559F55AF55B755C01F55D22D2
:10161600E4F5575380F9438004F558F559F55AF522
:071626005BF55C755D01221C
:0418B7004100860066
:100C2C0075F00290006712023DE0FEA3E0FFE513B1
:100C3C0075F00290002102023DE51275F002900061
:100C4C000102023DE51275F00290004102023D7472
:100C5C00312516F582E43400F58322D3E5149FEE9A
:100C6C006480F8E5136480982274512512F582E4AF
:100C7C003400F58322D3FFED9FEE6480F8EC6480A2
:100C8C00982274772512F582E43400F58322E0046F
:100C9C00F074112512F582E43400F58322E5137506
:100CAC00F00290006702023DE4F0FFFEFDFCAB5148
:100CBC00AA50A94FA84EC3020164FEC3E5159FEECE
:100CCC006480F8E51464809822E5515555FFE55091
:100CDC005554FEE54F5553FDE54E5552FC227E0012
:100CEC00900082E0FCA3E0FD12008B8EE78FE67F84
:100CFC00022274392512F582E43400F58322E0FED9
:100D0C00A3E0FF75F00222A4FFE0C39FE5F064802E
:100D1C00F8748098227D0A12009DAD037C000200BD
:100D2C008BE0FCA3E0C39F22900066E0FB3395E0D0
:0F0D3C00FAEBAE0222900066E0FF3395E0FE2254
:0C18F500EF4E6007EF1F70F81E80F52218
:020E92008F1BB4
:100E940012000E900089EFF0AF1B1218C6EFFB9002
:100EA4000083E025E0FF900082E033FE7C00120D19
:100EB40021E51B120C47120D2DEC9E500990008960
:100EC400E06049148036AF1B1218C6EFFB90008215
:100ED400E0FEA3E0FF7C007D0712008B120D21755C
:100EE400F002E51B120C4AE0FCA3E0D39FEC9E4009
:100EF4001B900089E0FF647E6012EF04FF745925A3
:0C0F04001BF582E43400F583EFF0D20509
:010F100022BE
:100F8D00C206900087E0120C3CE5E5F0A3E5E4F025
:100F9D00900087E004F0E0C39556400BE4F090001C
:100FAD0063E04480F08002D2067F021216BDEFC4CA
:100FBD0054F0F5E1900087E0FF1218C6120CEA120A
:100FCD0016BDEFC454F0FEC006E4FF1216BDD0E00E
:100FDD002FF5E1900087E0FF12000EE5E254804FFF
:100FED00F5E2900087E02419F582E43400F583E002
:090FFD004480F5E8300602D2EE52
:0110060022C7
:1010070075FE8543FF20D2AFC205E4900087F090BC
:101017000063F0121345E4FF1216BDEF2401FDE44F
:1010270033FC7E0B7FB812009D900082EEF0A3EF99
:10103700F0E4FF1218C6120CEA1216BDEFC454F002
:10104700FEC006E4FF1216BDD0E02FF5E17F0412C3
:1010570016BDEF6008E5E254804480F5E27F011297
:1010670016BD8FE312126843A910900019E044805F
:08107700F5E81211BB0217DFBE
:03198500D2EE227D
:10179500E4FD900063E0547FF0D2EE900063E0201A
:1017A500E7127FE87E031218F543CF100DEDC394C1
:0417B5003240E822B4
:0117B900220D
:1011BB00750820121795E4F509E509C39556501BE0
:1011CB00E509120C3C120D0AE509120C4AEEF0A3CC
:1011DB00EFF0AF09120E92050980DEAF081508EF8C
:1011EB0070D11218471219638F08121795E4F5097D
:1011FB00E509C395565009AF09120D4B050980F04F
:07120B00AF081508EF70E3C6
:0112120022B9
:1017DF00E4FFEFC39556501B75F002EF120C3FE07C
:1017EF00FCA3E0FD75F002EF120C4AECF0A3EDF054
:0317FF000F80DF79
:0118020022C3
:1017BA00E4900088F0F511E511C39556500EAF116B
:1017CA00120D4BAF1112040B051180EBAF51AE5045
:0417DA00AD4FAC4E15
:0117DE0022E8
:02040B008F124E
:10040D00E4F51A75F002EF120C4A120D0AE51212FC
:10041D000C3F120D2DF514EC9EF513E47F01FEFD3E
:10042D00FCA912A80112019C8F558E548D538C522C
:10043D00AF121216EA8E188F19C3E5149519E51827
:10044D00120C6C40057515018003E4F515E5156476
:10045D0001600302059274312512120C5FE0C39402
:10046D00FA500A74312512120C5FE004F0120CD50B
:10047D00E4FBFAF9F8C312016460030205759000FC
:10048D0000E0F51712198EEF6028E4F515F516E565
:10049D0016C39556500F120C5BE0C3940140020534
:1004AD0015051680EAE515C394034006740F25174C
:1004BD00F51774312512120C5FE0C3951750030226
:1004CD000575E4F51512196BEF7051F516E516C3A8
:1004DD009556501AE51265166010121936120C5BFE
:1004ED00E0C39F40057515018004051680DF1219C4
:1004FD008EEF7052E515704EF516E516C3955650F4
:10050D0045E5126516601112193674392516120D4E
:10051D0002E0C39F4002802B051680DE12198EEF7C
:10052D007024F517F516E516C39556500F120C5B92
:10053D00E0C3940240020517051680EAE517C3943F
:10054D00034003751501E515B40102D204E55145CB
:10055D0055FFE5504554FEE54F4553FDE54E4552DB
:10056D008F518E508D4FF54E120C75E4F0120C8E8E
:10057D00E4F0120C50E4F0A3F074112512F582E4AE
:10058D003400020768AF1212189E120C6740081251
:10059D000CFEE004F0800B900088E004F0120CFEDD
:1005AD00E4F0120D41C3E49FFDE49EFCC3E5149DF0
:1005BD00EC120C6C4066120C675061120C75E41253
:1005CD000C9C120CB460030206D5120C50E5138579
:1005DD0014F01200F2121917120C50E0FCA3E0C334
:1005ED00120C844009120C45E475F001802112199A
:1005FD0017C3E49FFFE49EFE120C50E0FCA3E0C382
:10060D00120C8440030206D5120C4574FFF5F0124E
:10061D0000F2120C50E4F0A3F00206D5900066E053
:10062D00FFFD3395E0FCC3E49DFDE49CFCC3E514A4
:10063D009DEC120C6C505A120C75120C9AE4F012BF
:10064D000C75E0FE75F00A84E5F07037EEC3946426
:10065D00400E120C75E4F0D20590007F04F080235B
:10066D00120C45C083C082E0FCA3E0FDEFA2E713AE
:10067D00FF3395E0FEC3ED9FFFEC9ED082D083F05B
:10068D00A3EFF0900081E06512703D74FFF002065B
:10069D00D5120D41120C67402F120C75120CB4704F
:1006AD0027120C9D120C9AE0B4201D120C9DE4F043
:1006BD00900066E0A2E713A2E713FF3395E0FE1268
:1006CD000C45EE8FF01200F2120CD54D4E4F70030B
:1006DD00020774E519AE187802CEA2E713CE13D82F
:1006ED00F8FFC3E5199FFFE5189EFEC3120C685075
:1006FD006F120C8EE004F01219738F17E4F516E5E6
:10070D0016C39556500F120C5BE0C39401400205C1
:10071D0015051680EAE515C394034006900000E028
:10072D00F517120C8EE0C39517407A120C8EE4F07B
:10073D00AF55AE54AD53AC52120157E5515FFFE5C5
:10074D00505EFEE54F5DFDE54E5C8F518E508D4F39
:10075D00F54E74312512F582E43400F583E4F02270
:10076D00120C8EE014F02274312512120C5F120C53
:10077D00B47005AF12120E92E556146512702690E4
:10078D000088E0C39556401DE4F516E516C3955651
:10079D00500D120C5BE06003751501051680ECE53C
:0507AD00157002C204FA
:0107B2002224
:10184700E4FFEFC39556501875F002EF120C3FE016
:10185700FCA3E0FDEF120CABECF0A3EDF00F80E280
:01186700225E
:020D4B008F1304
:100D4D00EF120C2C120D2DF515EC9EF514AF1312A0
:100D5D0016EAAD07AC06D3E5159DEC120CCC500B85
:100D6D00C3E49DFFE49C120CC6500B120C3AE0FE3E
:100D7D00A3E0FF020DF3ECA2E713FEED13FFD31278
:100D8D000CC8500BC3E49FFFE49E120CC6502712F3
:100D9D000CA9E0FCA3E0FDECC313FEED13FFC3EDC6
:100DAD009FFDEC9EFC120C3AE0C313FEA3E0132D45
:100DBD00FFEC3EFE8030120CA9E0FCA3E0FDAE047A
:100DCD007803CEC313CE13D8F9FFC3ED9FFDEC9E70
:100DDD00FC120C3AE0FEA3E07803CEC313CE13D879
:100DED00F92DFFEC3EFE120CA9EEF0A3EFF0E5138A
:080DFD00120C2CEEF0A3EFF044
:010E050022CA
:03198800A2052293
:03198B00D2052260
:10126800E4FFEFC39556502B74312F120C5FE4F056
:1012780074512F120C79E4F074772F120C92E4F069
:10128800EF120C52E4F0A3F074392F120D02E4F0BF
:101298000F80CFE4F551F550F54FF54E900081746D
:0B12A800FFF0E4900084F0A3F0C2050A
:0112B3002218
:020B0D008F1146
:100B0F00900086E0C394034035E4F090007FE070DE
:100B1F0022F512E512C39556501975F002E512121F
:100B2F000CAE120D0AE512120C4AEEF0A3EFF0050F
:100B3F001280E0121268C205E490007FF02290004C
:100B4F0080E004F0E0B51108121847E4900081F03E
:100B5F00900080E0D395115003020C2BE4F512E5C1
:100B6F0012C39556507A75F002E512120CAE120DA3
:100B7F000AE512120C3F120D2DFFEC9EAD07FC90F3
:100B8F00007FE07029120D347802C333CE33CED8F4
:100B9F00F9120C814040E49BFFE49AFEEF7802C308
:100BAF0033CE33CED8F9C3120C82502A8032120DB5
:100BBF00347803C333CE33CED8F9120C814017E407
:100BCF009BFFE49AFEEF7803C333CE33CED8F9FF01
:100BDF00C3120C83400AAF12120D4B0512020B6E9B
:100BEF00E512B55606900081E004F0E51175F008A6
:100BFF00900080120D134024E4F0C204900086E0B0
:100C0F0004F0E51175F004900081120D13400DE40E
:0C0C1F00900086F01217DF121268C20568
:010C2B0022A6
:101159000000000000000005000A0BB800C8006488
:1011690000020000000000040000FFFFFFFFFFFF76
:10117900001402260408170501540226040815055F
:101189000161022604080F050098022604081405C7
:10119900014C02260408150500A0022604081405BE
:1011A900014A022604081305011002260408100545
:0211B90001191A
:0418BB0041007F0069
:0B190C00901163E493FE740193FF222E
:0B191700901167E493FE740193FF221F
:08196300901161740193FF2251
:03198E007F0122B4
:1016EA00AD07ED75F008A42481F582E43411F58381
:1016FA00E493FEED75F008A42482F582E43411F532
:0C170A0083E4937C002400FFEC3EFE22F0
:1018C600EF75F008A4247EF582E43411F583E493E1
:0218D600FF22EF
:08196B0090115B740193FF224F
:0D000E0074592FF582E43400F583E0FF22E1
:08197300900000E0C313FF2205
:0A193600900000E075F00384FF222A
:10189E001216EAEF7803C333CE33CED8F9FF7C00AD
:0518AE007D0A02009D0F
:10121300E4FBFAF50BF50AF509F508750B38750AC1
:10122300D075090CF508EBC3941774809480503281
:10123300AF0BAE0AAD09AC0878011201758F0B8EA6
:101243000A8D098C0830D71774192AF582E4340003
:10125300F583EBF00AEAC394087480948050030B7F
:0412630080C48A5663
:011267002264
:1016BD00EF1460121460141460111460152404707A
:1016CD001990117B800890117C800390117DE4931B
:0D16DD00FF2290116D740193FF227F002207
:1013450090115F740193900000F0901179740193EE
:10135500900066F0121213E4FFEFC395565020EF8C
:1013650075F008A4247FF582E43411F583E493FE37
:1013750074592FF582E43400F583EEF00F80DAE43A
:06138500900064F0A3F0EB
:01138B00223F
:1009DD00E4F508F50CF50BF50AF509F510F50FF52D
:1009ED000EF50D1219885003020AF91217BA8F0C61
:1009FD008E0B8D0A8C09E4FBEBC395565047AF0C5B
:100A0D00AE0BAD0AAC0978011201758F0C8E0B8DF2
:100A1D000A8C0930D72CE47F01FEFDFC74192BF5EF
:100A2D0082E43400F583E0F9F812019CE5104FF5EE
:100A3D0010E50F4EF50FE50E4DF50EE50D4CF50DD0
:100A4D0005080B80B3AF087E00C3EF940274809449
:100A5D00804018D204EF94037480948040051219DD
:100A6D008B800812196BEF6002C20420042CE4FF86
:100A7D00FEFDFCAB10AA0FA90EA80DC312016460F8
:100A8D0010900065E004F07006900064E004F080C2
:100A9D0020E4900064F0A3F08017900062E004F071
:100AAD007006900061E004F0E4F510F50FF50EF519
:100ABD000D12190CD3900065E09F900064E09E40EC
:100ACD000A12198BE4900064F0A3F0D3900062E059
:100ADD00942C900061E09401401D12198B90007FC1
:100AED007401F0E4900061F0A3F0800B901169E4C3
:0F0AFD00740193FF120B0DAF10AE0FAD0EAC0DC9
:010B0C0022C6
:03005B0002154D3E
:10154D00C0E0C0F0C083C082C0D075D000C000C064
:10155D0001C002C003C004C005C006C007120F8D34
:10156D00D007D006D005D004D003D002D001D000D2
:0B157D00D0D0D082D083D0F0D0E0327C
:0618BF00041C0000000003
:0A194000E4F51FF51EF51DF51C224D
:10188400AF1FAE1EAD1DAC1CEF2401F51FE43EF5E9
:0A1894001EE43DF51DE43CF51C22A6
:09194A00AF1FAE1EAD1DAC1C2246
:101868008F0B8E0A8D098C0812194A1201DFAF0BF3
:0C187800AE0AAD09AC089000040201F9B2
:10165F008B088A09890A9000041201AF12021DC378
:10166F00E51F9BFBE51E9AFAE51D99F9E51C98F815
:10167F00C3120164E440047F018001FFFEFDFC22E0
:100E1200020003E493A3F8E493A34003F68001F2F3
:100E220008DFF48029E493A3F85407240CC8C333E1
:100E3200C4540F4420C8834004F456800146F6DFB0
:100E4200E4800B01020408102040809018B3E47E75
:100E5200019360BCA3FF543F30E509541FFEE493A5
:100E6200A360010ECF54C025E060A840B8E493A36C
:100E7200FAE493A3F8E493A3C8C582C8CAC583CA97
:100E8200F0A3C8C582C8CAC583CADFE9DEE780BE4F
:0118C5000022
:10005E00BB010CE58229F582E5833AF583E0225057
:10006E0006E92582F8E622BBFE06E92582F8E222A1
:0D007E00E58229F582E5833AF583E49322BB
:10008B00EF8DF0A4A8F0CF8CF0A428CE8DF0A42E89
:02009B00FE2243
:10009D00BC000BBE0029EF8DF084FFADF022E4CC47
:1000AD00F875F008EF2FFFEE33FEEC33FCEE9DEC10
:1000BD00984005FCEE9DFE0FD5F0E9E4CEFD22ED56
:1000CD00F8F5F0EE8420D21CFEADF075F008EF2FA0
:1000DD00FFED33FD4007985006D5F0F222C398FD91
:0500ED000FD5F0EA222E
:1000F200C5F0F8A3E028F0C5F0F8E5821582700299
:060102001583E038F02235
:10010800E88FF0A4CC8BF0A42CFCE98EF0A42CFC96
:100118008AF0EDA42CFCEA8EF0A4CDA8F08BF0A414
:100128002DCC3825F0FDE98FF0A42CCD35F0FCEB73
:100138008EF0A4FEA9F0EB8FF0A4CFC5F02ECD3938
:0F014800FEE43CFCEAA42DCE35F0FDE43CFC22A5
:1013D100C2D5E830E70FB2D5E4C39BFBE49AFAE447
:1013E10099F9E498F8EC30E717B2D5121407120214
:1013F100EBE4C39BFBE49AFAE499F9E498F88003DF
:101401001202EB30D50DE4C39FFFE49EFEE49DFD87
:04141100E49CFC2239
:0D015700CFF4CFCEF4CECDF4CDCCF4CC223D
:10016400EB9FF5F0EA9E42F0E99D42F0E89C45F0F1
:010174002268
:10017500E8600FECC313FCED13FDEE13FEEF13FF68
:03018500D8F1228C
:10018800E86010ECA2E713FCED13FDEE13FEEF138D
:04019800FFD8F0227A
:10019C00E8600FEFC333FFEE33FEED33FDEC33FCC1
:0301AC00D8F12265
:1001AF00BB010DE58229F582E5833AF583020389C8
:1001BF005007E92582F802037DBBFE07E92582F887
:1001CF00020395E58229F582E5833AF5830203A1BF
:1001DF00BB010789828A830203F35005E9F8020302
:0A01EF00E7BBFE05E9F80203FF225A
:1001F900BB010DE58229F582E5833AF5830203F314
:100209005007E92582F80203E7BBFE07E92582F8D2
:040219000203FF22BB
:10021D00BB010789828A830203BE5005E9F80203F8
:10022D00B1BBFE05E9F80203CA89828A830203D7AE
:0C023D00A42582F582E5F03583F58322CC
:10024900D083D082E4937012740193700DA3A393A9
:10025900F8740193F5828883E4737402936C7012C5
:100269007403936D700C7404936E70067405936F28
:0A02790060DDA3A3A3A3A3A380CA22
:10028300EF4E6012EF60010EEDBB010B89828A8392
:10029300F0A3DFFCDEFA2289F05007F709DFFCA99F
:0C02A300F022BBFEFCF309DFFCA9F022F6
:1002AF0075F008758200EF2FFFEE33FECD33CDCC06
:1002BF0033CCC58233C5829BED9AEC99E582984089
:1002CF000CF582EE9BFEED9AFDEC99FC0FD5F0D666
:1002DF00E4CEFBE4CDFAE4CCF9A88222B800C1B990
:1002EF000059BA002DEC8BF084CFCECDFCE5F0CBCE
:1002FF00F97818EF2FFFEE33FEED33FDEC33FCEB07
:10030F0033FB10D703994004EB99FB0FD8E5E4F9C1
:10031F00FA227818EF2FFFEE33FEED33FDEC33FCAE
:10032F00C933C910D7059BE99A4007EC9BFCE99AA2
:10033F00F90FD8E0E4C9FAE4CCFB2275F010EF2FE7
:10034F00FFEE33FEED33FDCC33CCC833C810D707E7
:10035F009BEC9AE899400AED9BFDEC9AFCE899F822
:0E036F000FD5F0DAE4CDFBE4CCFAE4C8F922B5
:0C037D00E6FC08E6FD08E6FE08E6FF22AC
:0C038900E0FCA3E0FDA3E0FEA3E0FF22E7
:0C039500E2FC08E2FD08E2FE08E2FF22A4
:1003A100E493FC740193FD740293FE740393FF22A2
:0D03B100E6FB08E6F908E6FA08E6CBF822BC
:0C03BE00E0F8A3E0F9A3E0FAA3E0FB22C2
:0D03CA00E2FB08E2F908E2FA08E2CBF822B3
:1003D700E493F8740193F9740293FA740393FB227C
:0C03E700ECF608EDF608EEF608EFF62242
:0C03F300ECF0A3EDF0A3EEF0A3EFF0227D
:0C03FF00ECF208EDF208EEF208EFF2223A
:00000001FF
