:03000000020DC727
:0C0DC700787FE4F6D8FD758161020E0E05
:080003001215D712191C80FB35
:10003E00439A31539BCE75803143A1D353A22C7575
:0C004E00A0D34391305392CF7590302224
:1015D7001219221218E112002E1218CD12003E1213
:1015E70018C31214FF7D807C257F02120ED27D80E6
:1015F7007C257F02121040120FC812001E7F0102C5
:0216070016EBE0
:06191C001200260207B3D1
:1016EB00EFFD3395E0FCD3ED9401EC6480948040E6
:1016FB00037F0222ED64014C7005D2AF7F0122EF14
:0A170B003395E04F7003C2AFFF22D8
:0C002E0043A12053A2DFC2A5755F012290
:1010B300E4FF7E40FDFCAB3BAA3AA939A838C31232
:1010C3000164704BE55B7005755B01055CE55C30A5
:1010D300E01EC3E55E94B8E55D940B5009055EE53B
:1010E3005E7033055D22E4F55DF55ED2A5F55F2202
:1010F300C3E55E94B8E55D940B5009055EE55E704B
:1011030015055D22E4F55DF55EC2A5755F0122E478
:07111300F55BF55DF55E22BE
:1014FF00758E07438901758A18758CFCC28CD2A929
:10150F00D28C438920758B10758D10C28ED2ABD2C1
:10151F008EE4F5C9F5C875CBFE75CA70C2CAD2ADD7
:07152F00D2CAF5B8F5B9229C
:03000B0002127569
:10127500C0E0C0F0C083C082C0D075D000C000C03F
:1012850001C002C003C004C005C006C007758A18A6
:10129500758CFC12180512138C1210B3D007D006EA
:1012A500D005D004D003D002D001D000D0D0D08258
:0712B500D083D0F0D0E0323D
:03001B00020022BE
:0100220032AB
:03002B0002144A72
:10144A00C0E0C0F0C083C082C0D075D000C000C068
:10145A0001C002C003C004C005C006C007C2CF1243
:10146A001715D007D006D005D004D003D002D0017A
:0D147A00D000D0D0D082D083D0F0D0E032AE
:04183400C101C1032A
:100ED2008F088C098D0A5391F343920C4398504327
:100EE2008E02438920438780AF08EF3395E0FEFDF1
:100EF200FC7B407A42790F7800120108C006C007D5
:100F0200AE09AF0AAB07AA06E4F9F8D007D0061279
:100F1200134878081201888F8DAF08EF3395E0FEF1
:100F2200FDFC7B407A42790F7800120108C006C0AE
:100F320007AE09AF0AAB07AA06E4F9F8D007D00654
:0C0F42001213488F8BC28EC2ABD2AC22BF
:101040008F088C098D0A53A1FC43A203758FC075CC
:101050009D50AF08EF3395E0FEFDFC7B407A42796E
:101060000F7800120108C006C007AE09AF0AAB072F
:10107000AA06E4F9F8D007D0061213488F9EAF08ED
:10108000EF3395E0FEFDFC7B407A42790F78001249
:101090000108C006C007AE09AF0AAB07AA06E4F90B
:1010A000F8D007D00612134878081201888F95757A
:0310B000A9012271
:0818F4008F993001FDC20122B1
:061639008B138A148915D1
:10163F00E4F53CC3E53C9407748094805017AB13DA
:10164F00AA14A915853C8275830012005EFF12183B
:07165F00F4053C80DE7F0072
:011666002261
:0813CE008F088D098A0A8B0BC0
:1013D6007E007F077D007B007A00790C12028385F0
:1013E600080C85090DE50AF50EE50BF50FE50C254C
:1013F6000D250E250FF51075110D75120A7B007A55
:0614060000790C0216390A
:0818FC008F9F3002FDC20222A1
:061536008B138A148915D5
:10153C00E4F53DAF3DEF3395E0FEC3EF9407EE6469
:10154C008094805019AB13AA14A915EF3395E08F32
:10155C0082F58312005EFF1218FC053D80D57F00DA
:01156C00225C
:08140C008F088D098A0A8B0B81
:101414007E007F077D007B007A00790C12028385B1
:10142400080C85090DE50AF50EE50BF50FE50C250D
:101434000D250E250FF51075110D75120A7B007A16
:0614440000790C021536D0
:0E188800E54730E706E4F5477F01227F0022A6
:0A18A2003000FDC200859F3EAF3EFE
:0118AC002219
:101303001218A28F46E54754807039E54764407050
:1013130009EF640A702B75478022E546640D70045B
:1013230075474022743F2547F8A6460547E53F64C5
:10133300FA6003E4F547D3E547940774809480404B
:0513430003E4F5472260
:1015A400121888EF602CE541FEE5428E49F54A7E2B
:1015B400007F077D007B007A00793F120283E549B2
:1015C4007010E54A24BC60072411700602185912F1
:0315D40018692271
:0300230002187947
:0F187900309904C299D201309804C298D2033238
:03003B000216C0EA
:1016C000C0E0C0D075D000C000C007E59D30E10586
:1016D000539DFDD202E59D30E008539DFED20012DD
:0B16E0001303D007D000D0D0D0E032C0
:04001E0043CF10229A
:0400260043CF102292
:0419220053CF40223D
:10185900E4F524F523F522F5217536117561642225
:10186900E4F524F523F522F52175362275610F2259
:101487007B007A007925121609EC4D4E4F602D7BB3
:10149700007A0079257F327E007D007C001217CE0E
:1014A700E536FB3395E0FA7DFB7FFA1213CEE5377D
:0D14B700FB3395E0FA7DFB7FFA12140C2246
:1007B300900063E020E703020998547FF012099E3A
:1007C3008F3B8E3A8D398C38120249080E00000097
:1007D30008085100000010087F0000002009950060
:1007E30000010009950000020008AD000010000898
:1007F300DB0000400008FF0000800009290004001E
:100803000009500008000000000977E47F08FEFD9E
:10081300FCAB24AA23A922A821C3120164700302FA
:100823000995E55F7003020995E4752408F523F53E
:1008330022F5210535E53530E00875361175373376
:1008430080067536227537441217EA020995E47F4C
:1008530010FEFDFCAB24AA23A922A821C312016424
:100863007003020995E55F7003020995E47524108E
:10087300F523F522F52112156D020995E47F20FE7B
:10088300FDFCAB24AA23A922A821C312016470038F
:10089300020995E55F7003020995E4752420F523A9
:1008A300F522F521753603020995E4FF7E10FDFC60
:1008B300AB24AA23A922A821C3120164700302094D
:1008C30095E55F7003020995E4F524752310F5227D
:1008D300F521753609020995E4FF7E40FDFCAB2442
:1008E300AA23A922A821C31201647003020995E473
:1008F300F524752340F522F521020995E4FF7E8056
:10090300FDFCAB24AA23A922A821C312016470030E
:10091300020995E55F607BE4F524752380F522F5F4
:1009230021753601806CE4FFFE7D04FCAB24AA2311
:10093300A922A821C31201646058E55F6054E4F55D
:1009430024F523752204F5217536028045E4FFFE64
:100953007D08FCAB24AA23A922A821C31201646049
:1009630031E55F602DE4F524F523752208F5217543
:100973003604801EE4FFFEFDFCAB24AA23A922A8B3
:1009830021C3120164600BE4F524F523F522F5215C
:0B099300F5361219261215A402148775
:0A18C300439A01539BFE75610F224A
:101715000560AF60EF3395E0FED3EF9464EE64802F
:1017250094804003E4F560C3E5616480F8E5606496
:0A17350080984003C28022D2802277
:1017EA00AF61EF3395E0FEEF640F4E7004756164EC
:0B17FA0022EF64644E700375610F2243
:0A18CD00439A06539BF95380F92259
:10138C00E559601E0556E55670020555D39420E5C7
:10139C00559403400DE4F555F556F559755A01531E
:1013AC0080F9E55A601B0558E55870020557D3942F
:1013BC0020E5579403400AE4F557F558755901F5A3
:0213CC005A22A3
:10156D00AF54EF3395E04F70177554015380F94325
:10157D008002F555F556F557F558755901F55A226E
:10158D00E4F5545380F9438004F555F556F557F5B8
:07159D0058F559755A0122AF
:0418380041008600E5
:100BED0075F00290006712023DE0FEA3E0FFE513F1
:100BFD0075F00290002102023DE51275F0029000A1
:100C0D000102023DE51275F00290004102023D74B1
:100C1D00312516F582E43400F58322D3E5149FEED9
:100C2D006480F8E5136480982274512512F582E4EE
:100C3D003400F58322D3FFED9FEE6480F8EC6480E1
:100C4D00982274772512F582E43400F58322E004AE
:100C5D00F074112512F582E43400F58322E5137545
:100C6D00F00290006702023DE4F0FFFEFDFCAB4E8A
:100C7D00AA4DA94CA84BC3020164FEC3E5159FEE16
:100C8D006480F8E51464809822E54E5552FFE54DD9
:100C9D005551FEE54C5550FDE54B554FFC227E0060
:100CAD00900082E0FCA3E0FD12008B8EE78FE67FC3
:100CBD00022274392512F582E43400F58322E0FE18
:100CCD00A3E0FF75F00222A4FFE0C39FE5F064806E
:100CDD00F8748098227D0A12009DAD037C000200FD
:100CED008BE0FCA3E0C39F22900066E0FB3395E010
:0F0CFD00FAEBAE0222900066E0FF3395E0FE2294
:0C189600EF4E6007EF1F70F81E80F52277
:020E53008F1BF3
:100E550012000E900089EFF0AF1B121847EFFB90C0
:100E65000083E025E0FF900082E033FE7C00120C59
:100E7500E2E51B120C08120CEEEC9E50099000895D
:100E8500E06049148036AF1B121847EFFB900082D3
:100E9500E0FEA3E0FF7C007D0712008B120CE275DB
:100EA500F002E51B120C0BE0FCA3E0D39FEC9E4087
:100EB5001B900089E0FF647E6012EF04FF745925E2
:0C0EC5001BF582E43400F583EFF0D20549
:010ED10022FE
:100F4E00C206900087E0120BFDE5E5F0A3E5E4F0A4
:100F5E00900087E004F0E0C39553400BE4F090005E
:100F6E0063E04480F08002D2067F02121667EFC45F
:100F7E0054F0F5E1900087E0FF121847120CAB1207
:100F8E001667EFC454F0FEC006E4FF121667D0E0F9
:100F9E002FF5E1900087E0FF12000EE5E254804F3E
:100FAE00F5E2900087E02419F582E43400F583E041
:090FBE004480F5E8300602D2EE91
:010FC7002207
:100FC80075FE8543FF20D2AFC205E4900087F090FC
:100FD8000063F01212BCE4FF121667EF2401FDE46F
:100FE80033FC7E0B7FB812009D900082EEF0A3EFD9
:100FF800F0E4FF121847120CAB121667EFC454F056
:10100800FEC006E4FF121667D0E02FF5E17F041258
:101018001667EF6008E5E254804480F5E27F01122C
:1010280016678FE312122943A910900019E0448033
:08103800F5E812117C02178992
:03192600D2EE22DC
:10173F00E4FD900063E0547FF0D2EE900063E02070
:10174F00E7127FE87E0312189643CF100DEDC39476
:04175F003240E8220A
:011763002263
:10117C0075082012173FE4F509E509C39553501B78
:10118C00E509120BFD120CCBE509120C0BEEF0A3CA
:10119C00EFF0AF09120E53050980DEAF081508EF0A
:1011AC0070D11217AD1219048F0812173FE4F5090C
:1011BC00E509C395535009AF09120D0C050980F0D0
:0711CC00AF081508EF70E306
:0111D30022F9
:10178900E4FFEFC39553501B75F002EF120C00E014
:10179900FCA3E0FD75F002EF120C0BECF0A3EDF0E9
:0317A9000F80DFCF
:0117AC00221A
:10176400E4900088F0F511E511C39553500EAF11C4
:10177400120D0CAF1112040B051180EBAF4EAE4DE0
:04178400AD4CAC4B71
:01178800223E
:02040B008F124E
:10040D00E4F51A75F002EF120C0B120CCBE512127B
:10041D000C00120CEEF514EC9EF513E47F01FEFDBD
:10042D00FCA912A80112019C8F528E518D508C4F38
:10043D00AF121216948E188F19C3E5149519E5187D
:10044D00120C2D40057515018003E4F515E51564B5
:10045D0001600302059274312512120C20E0C39441
:10046D00FA500A74312512120C20E004F0120C9689
:10047D00E4FBFAF9F8C312016460030205759000FC
:10048D0000E0F51712192FEF6028E4F515F516E5C4
:10049D0016C39553500F120C1CE0C3940140020576
:1004AD0015051680EAE515C394034006740F25174C
:1004BD00F51774312512120C20E0C3951750030265
:1004CD000575E4F51512190CEF7051F516E516C307
:1004DD009553501AE512651660101218D7120C1CA0
:1004ED00E0C39F40057515018004051680DF1219C4
:1004FD002FEF7052E515704EF516E516C395535056
:10050D0045E512651660111218D774392516120CAF
:10051D00C3E0C39F4002802B051680DE12192FEF1A
:10052D007024F517F516E516C39553500F120C1CD4
:10053D00E0C3940240020517051680EAE517C3943F
:10054D00034003751501E515B40102D204E54E45CE
:10055D0052FFE54D4551FEE54C4550FDE54B454FF0
:10056D008F4E8E4D8D4CF54B120C36E4F0120C4F18
:10057D00E4F0120C11E4F0A3F074112512F582E4ED
:10058D003400020768AF1212181F120C284008120F
:10059D000CBFE004F0800B900088E004F0120CBF5B
:1005AD00E4F0120D02C3E49FFDE49EFCC3E5149D2F
:1005BD00EC120C2D4066120C285061120C36E41210
:1005CD000C5D120C7560030206D5120C11E5138536
:1005DD0014F01200F21218B8120C11E0FCA3E0C3D3
:1005ED00120C454009120C06E475F0018021121819
:1005FD00B8C3E49FFFE49EFE120C11E0FCA3E0C320
:10060D00120C4540030206D5120C0674FFF5F012CC
:10061D0000F2120C11E4F0A3F00206D5900066E092
:10062D00FFFD3395E0FCC3E49DFDE49CFCC3E514A4
:10063D009DEC120C2D505A120C36120C5BE4F0127C
:10064D000C36E0FE75F00A84E5F07037EEC3946465
:10065D00400E120C36E4F0D20590007F04F080239A
:10066D00120C06C083C082E0FCA3E0FDEFA2E713ED
:10067D00FF3395E0FEC3ED9FFFEC9ED082D083F05B
:10068D00A3EFF0900081E06512703D74FFF002065B
:10069D00D5120D02120C28402F120C36120C75704B
:1006AD0027120C5E120C5BE0B4201D120C5EE4F000
:1006BD00900066E0A2E713A2E713FF3395E0FE1268
:1006CD000C06EE8FF01200F2120C964D4E4F700389
:1006DD00020774E519AE187802CEA2E713CE13D82F
:1006ED00F8FFC3E5199FFFE5189EFEC3120C2950B4
:1006FD006F120C4FE004F01219148F17E4F516E584
:10070D0016C39553500F120C1CE0C3940140020503
:10071D0015051680EAE515C394034006900000E028
:10072D00F517120C4FE0C39517407A120C4FE4F0F9
:10073D00AF52AE51AD50AC4F120157E54E5FFFE5D4
:10074D004D5EFEE54C5DFDE54B5C8F4E8E4D8D4C4B
:10075D00F54B74312512F582E43400F583E4F02273
:10076D00120C4FE014F02274312512120C20120CD1
:10077D00757005AF12120E53E55314651270269065
:10078D000088E0C39553401DE4F516E516C3955357
:10079D00500D120C1CE06003751501051680ECE57B
:0507AD00157002C204FA
:0107B2002224
:1017AD00E4FFEFC39553501875F002EF120C00E0F3
:1017BD00FCA3E0FDEF120C6CECF0A3EDF00F80E25A
:0117CD0022F9
:020D0C008F1343
:100D0E00EF120BED120CEEF515EC9EF514AF13125F
:100D1E001694AD07AC06D3E5159DEC120C8D500B59
:100D2E00C3E49DFFE49C120C87500B120BFBE0FEFC
:100D3E00A3E0FF020DB4ECA2E713FEED13FFD312F6
:100D4E000C89500BC3E49FFFE49E120C87502712B0
:100D5E000C6AE0FCA3E0FDECC313FEED13FFC3ED44
:100D6E009FFDEC9EFC120BFBE0C313FEA3E0132DC4
:100D7E00FFEC3EFE8030120C6AE0FCA3E0FDAE04F8
:100D8E007803CEC313CE13D8F9FFC3ED9FFDEC9EAF
:100D9E00FC120BFBE0FEA3E07803CEC313CE13D8F8
:100DAE00F92DFFEC3EFE120C6AEEF0A3EFF0E51308
:080DBE00120BEDEEF0A3EFF0C3
:010DC600220A
:03192900A20522F2
:03192C00D20522BF
:10122900E4FFEFC39553502B74312F120C20E4F0D7
:1012390074512F120C3AE4F074772F120C53E4F026
:10124900EF120C13E4F0A3F074392F120CC3E4F07D
:101259000F80CFE4F54EF54DF54CF54B90008174B8
:0B126900FFF0E4900084F0A3F0C20549
:011274002257
:020ACE008F1186
:100AD000900086E0C394034035E4F090007FE0701E
:100AE00022F512E512C39553501975F002E5121262
:100AF0000C6F120CCBE512120C0BEEF0A3EFF0050D
:100B00001280E0121229C205E490007FF0229000CA
:100B100080E004F0E0B511081217ADE4900081F018
:100B2000900080E0D395115003020BECE4F512E540
:100B300012C39553507A75F002E512120C6F120C25
:100B4000CBE512120C00120CEEFFEC9EAD07FC90F0
:100B5000007FE07029120CF57802C333CE33CED873
:100B6000F9120C424040E49BFFE49AFEEF7802C386
:100B700033CE33CED8F9C3120C43502A8032120C34
:100B8000F57803C333CE33CED8F9120C424017E4C4
:100B90009BFFE49AFEEF7803C333CE33CED8F9FF40
:100BA000C3120C44400AAF12120D0C0512020B2F97
:100BB000E512B55306900081E004F0E51175F008E8
:100BC000900080120CD44024E4F0C204900086E02F
:100BD00004F0E51175F004900081120CD4400DE48E
:0C0BE000900086F0121789121229C2053D
:010BEC0022E6
:10111A000000000000000005000A0BB800C80064C7
:10112A0000020000000000040000FFFFFFFFFFFFB5
:10113A00001402260408170501540226040815059E
:10114A000161022604080F05009802260408140506
:10115A00014C02260408150500A0022604081405FD
:10116A00014A022604081305011002260408100584
:02117A00011959
:04183C0041007F00E8
:0B18AD00901124E493FE740193FF22CD
:0B18B800901128E493FE740193FF22BE
:08190400901122740193FF22EF
:03192F007F012213
:10169400AD07ED75F008A42442F582E43411F58316
:1016A400E493FEED75F008A42443F582E43411F5C7
:0C16B40083E4937C002400FFEC3EFE2247
:10184700EF75F008A4243FF582E43411F583E4939F
:02185700FF226E
:08190C0090111C740193FF22ED
:0D000E0074592FF582E43400F583E0FF22E1
:08191400900000E0C313FF2264
:0A18D700900000E075F00384FF228A
:10181F00121694EF7803C333CE33CED8F9FF7C0082
:05182F007D0A02009D8E
:1011D400E4FBFAF50BF50AF509F508750B38750A01
:1011E400D075090CF508EBC39417748094805032C1
:1011F400AF0BAE0AAD09AC0878011201758F0B8EE6
:101204000A8D098C0830D71774192AF582E4340042
:10121400F583EBF00AEAC394087480948050030BBE
:0412240080C48A53A5
:0112280022A3
:10166700EF146012146014146011146015240470D0
:101677001990113C800890113D800390113EE4932E
:0D168700FF2290112E740193FF227F00229C
:1012BC00901120740193900000F090113A740193F6
:1012CC00900066F01211D4E4FFEFC395535020EF59
:1012DC0075F008A42440F582E43411F583E493FE00
:1012EC0074592FF582E43400F583EEF00F80DAE4C4
:0612FC00900064F0A3F075
:0113020022C8
:10099E00E4F508F50CF50BF50AF509F510F50FF56C
:1009AE000EF50D1219295003020ABA1217648F0C94
:1009BE008E0B8D0A8C09E4FBEBC395535047AF0C9D
:1009CE00AE0BAD0AAC0978011201758F0C8E0B8D32
:1009DE000A8C0930D72CE47F01FEFDFC74192BF52F
:1009EE0082E43400F583E0F9F812019CE5104FF52E
:1009FE0010E50F4EF50FE50E4DF50EE50D4CF50D10
:100A0E0005080B80B3AF087E00C3EF940274809488
:100A1E00804018D204EF940374809480400512191C
:100A2E002C800812190CEF6002C20420042CE4FF83
:100A3E00FEFDFCAB10AA0FA90EA80DC31201646037
:100A4E0010900065E004F07006900064E004F08001
:100A5E0020E4900064F0A3F08017900062E004F0B0
:100A6E007006900061E004F0E4F510F50FF50EF558
:100A7E000D1218ADD3900065E09F900064E09E408B
:100A8E000A12192CE4900064F0A3F0D3900062E0F7
:100A9E00942C900061E09401401D12192C90007F5F
:100AAE007401F0E4900061F0A3F0800B90112AE441
:0F0ABE00740193FF120ACEAF10AE0FAD0EAC0D48
:010ACD002206
:03005B000214C4C8
:1014C400C0E0C0F0C083C082C0D075D000C000C0EE
:1014D40001C002C003C004C005C006C007120F4EFD
:1014E400D007D006D005D004D003D002D001D0005C
:0B14F400D0D0D082D083D0F0D0E03206
:06184000041C0000000082
:0A18E100E4F51FF51EF51DF51C22AD
:10180500AF1FAE1EAD1DAC1CEF2401F51FE43EF568
:0A1815001EE43DF51DE43CF51C2225
:0918EB00AF1FAE1EAD1DAC1C22A6
:1017CE008F0B8E0A8D098C081218EB1201DFAF0BEE
:0C17DE00AE0AAD09AC089000040201F94D
:101609008B088A09890A9000041201AF12021DC3CE
:10161900E51F9BFBE51E9AFAE51D99F9E51C98F86B
:10162900C3120164E440047F018001FFFEFDFC2236
:100DD300020003E493A3F8E493A34003F68001F233
:100DE30008DFF48029E493A3F85407240CC8C33321
:100DF300C4540F4420C8834004F456800146F6DFF0
:100E0300E4800B0102040810204080901834E47E33
:100E1300019360BCA3FF543F30E509541FFEE493E4
:100E2300A360010ECF54C025E060A840B8E493A3AB
:100E3300FAE493A3F8E493A3C8C582C8CAC583CAD6
:100E4300F0A3C8C582C8CAC583CADFE9DEE780BE8E
:0118460000A1
:10005E00BB010CE58229F582E5833AF583E0225057
:10006E0006E92582F8E622BBFE06E92582F8E222A1
:0D007E00E58229F582E5833AF583E49322BB
:10008B00EF8DF0A4A8F0CF8CF0A428CE8DF0A42E89
:02009B00FE2243
:10009D00BC000BBE0029EF8DF084FFADF022E4CC47
:1000AD00F875F008EF2FFFEE33FEEC33FCEE9DEC10
:1000BD00984005FCEE9DFE0FD5F0E9E4CEFD22ED56
:1000CD00F8F5F0EE8420D21CFEADF075F008EF2FA0
:1000DD00FFED33FD4007985006D5F0F222C398FD91
:0500ED000FD5F0EA222E
:1000F200C5F0F8A3E028F0C5F0F8E5821582700299
:060102001583E038F02235
:10010800E88FF0A4CC8BF0A42CFCE98EF0A42CFC96
:100118008AF0EDA42CFCEA8EF0A4CDA8F08BF0A414
:100128002DCC3825F0FDE98FF0A42CCD35F0FCEB73
:100138008EF0A4FEA9F0EB8FF0A4CFC5F02ECD3938
:0F014800FEE43CFCEAA42DCE35F0FDE43CFC22A5
:10134800C2D5E830E70FB2D5E4C39BFBE49AFAE4D0
:1013580099F9E498F8EC30E717B2D512137E120227
:10136800EBE4C39BFBE49AFAE499F9E498F8800368
:101378001202EB30D50DE4C39FFFE49EFEE49DFD11
:04138800E49CFC22C3
:0D015700CFF4CFCEF4CECDF4CDCCF4CC223D
:10016400EB9FF5F0EA9E42F0E99D42F0E89C45F0F1
:010174002268
:10017500E8600FECC313FCED13FDEE13FEEF13FF68
:03018500D8F1228C
:10018800E86010ECA2E713FCED13FDEE13FEEF138D
:04019800FFD8F0227A
:10019C00E8600FEFC333FFEE33FEED33FDEC33FCC1
:0301AC00D8F12265
:1001AF00BB010DE58229F582E5833AF583020389C8
:1001BF005007E92582F802037DBBFE07E92582F887
:1001CF00020395E58229F582E5833AF5830203A1BF
:1001DF00BB010789828A830203F35005E9F8020302
:0A01EF00E7BBFE05E9F80203FF225A
:1001F900BB010DE58229F582E5833AF5830203F314
:100209005007E92582F80203E7BBFE07E92582F8D2
:040219000203FF22BB
:10021D00BB010789828A830203BE5005E9F80203F8
:10022D00B1BBFE05E9F80203CA89828A830203D7AE
:0C023D00A42582F582E5F03583F58322CC
:10024900D083D082E4937012740193700DA3A393A9
:10025900F8740193F5828883E4737402936C7012C5
:100269007403936D700C7404936E70067405936F28
:0A02790060DDA3A3A3A3A3A380CA22
:10028300EF4E6012EF60010EEDBB010B89828A8392
:10029300F0A3DFFCDEFA2289F05007F709DFFCA99F
:0C02A300F022BBFEFCF309DFFCA9F022F6
:1002AF0075F008758200EF2FFFEE33FECD33CDCC06
:1002BF0033CCC58233C5829BED9AEC99E582984089
:1002CF000CF582EE9BFEED9AFDEC99FC0FD5F0D666
:1002DF00E4CEFBE4CDFAE4CCF9A88222B800C1B990
:1002EF000059BA002DEC8BF084CFCECDFCE5F0CBCE
:1002FF00F97818EF2FFFEE33FEED33FDEC33FCEB07
:10030F0033FB10D703994004EB99FB0FD8E5E4F9C1
:10031F00FA227818EF2FFFEE33FEED33FDEC33FCAE
:10032F00C933C910D7059BE99A4007EC9BFCE99AA2
:10033F00F90FD8E0E4C9FAE4CCFB2275F010EF2FE7
:10034F00FFEE33FEED33FDCC33CCC833C810D707E7
:10035F009BEC9AE899400AED9BFDEC9AFCE899F822
:0E036F000FD5F0DAE4CDFBE4CCFAE4C8F922B5
:0C037D00E6FC08E6FD08E6FE08E6FF22AC
:0C038900E0FCA3E0FDA3E0FEA3E0FF22E7
:0C039500E2FC08E2FD08E2FE08E2FF22A4
:1003A100E493FC740193FD740293FE740393FF22A2
:0D03B100E6FB08E6F908E6FA08E6CBF822BC
:0C03BE00E0F8A3E0F9A3E0FAA3E0FB22C2
:0D03CA00E2FB08E2F908E2FA08E2CBF822B3
:1003D700E493F8740193F9740293FA740393FB227C
:0C03E700ECF608EDF608EEF608EFF62242
:0C03F300ECF0A3EDF0A3EEF0A3EFF0227D
:0C03FF00ECF208EDF208EEF208EFF2223A
:00000001FF
