:03000000020DBB33
:0C0DBB00787FE4F6D8FD758161020E021D
:080003001215CB12191080FB4D
:10003E00439A31539BCE75803143A1D353A22C7575
:0C004E00A0D34391305392CF7590302224
:1015CB001219161218D512002E1218C112003E1243
:1015DB0018B71214F37D807C257F02120EC67D8016
:1015EB007C257F02121034120FBC12001E7F0102E9
:0215FB0016DFF9
:061910001200260207B3DD
:1016DF00EFFD3395E0FCD3ED9401EC6480948040F2
:1016EF00037F0222ED64014C7005D2AF7F0122EF20
:0A16FF003395E04F7003C2AFFF22E5
:0C002E0043A12053A2DFC2A5755F012290
:1010A700E4FF7E40FDFCAB3BAA3AA939A838C3123E
:1010B7000164704BE55B7005755B01055CE55C30B1
:1010C700E01EC3E55E94B8E55D940B5009055EE547
:1010D7005E7033055D22E4F55DF55ED2A5F55F220E
:1010E700C3E55E94B8E55D940B5009055EE55E7057
:1010F70015055D22E4F55DF55EC2A5755F0122E485
:07110700F55BF55DF55E22CA
:1014F300758E07438901758A18758CFCC28CD2A935
:10150300D28C438920758B10758D10C28ED2ABD2CD
:101513008EE4F5C9F5C875CBFE75CA70C2CAD2ADE3
:07152300D2CAF5B8F5B922A8
:03000B0002126975
:10126900C0E0C0F0C083C082C0D075D000C000C04B
:1012790001C002C003C004C005C006C007758A18B2
:10128900758CFC1217F91213801210A7D007D0061B
:10129900D005D004D003D002D001D000D0D0D08264
:0712A900D083D0F0D0E03249
:03001B00020022BE
:0100220032AB
:03002B0002143E7E
:10143E00C0E0C0F0C083C082C0D075D000C000C074
:10144E0001C002C003C004C005C006C007C2CF124F
:10145E001709D007D006D005D004D003D002D00192
:0D146E00D000D0D0D082D083D0F0D0E032BA
:04182800C101C10336
:100EC6008F088C098D0A5391F343920C4398504333
:100ED6008E02438920438780AF08EF3395E0FEFDFD
:100EE600FC7B407A42790F7800120108C006C007E1
:100EF600AE09AF0AAB07AA06E4F9F8D007D0061286
:100F0600133C78081201888F8DAF08EF3395E0FE09
:100F1600FDFC7B407A42790F7800120108C006C0BA
:100F260007AE09AF0AAB07AA06E4F9F8D007D00660
:0C0F360012133C8F8BC28EC2ABD2AC22D7
:101034008F088C098D0A53A1FC43A203758FC075D8
:101044009D50AF08EF3395E0FEFDFC7B407A42797A
:101054000F7800120108C006C007AE09AF0AAB073B
:10106400AA06E4F9F8D007D00612133C8F9EAF0805
:10107400EF3395E0FEFDFC7B407A42790F78001255
:101084000108C006C007AE09AF0AAB07AA06E4F917
:10109400F8D007D00612133C78081201888F957592
:0310A400A901227D
:0818E8008F993001FDC20122BD
:06162D008B138A148915DD
:10163300E4F53CC3E53C9407748094805017AB13E6
:10164300AA14A915853C8275830012005EFF121847
:07165300E8053C80DE7F008A
:01165A00226D
:0813C2008F088D098A0A8B0BCC
:1013CA007E007F077D007B007A00790C12028385FC
:1013DA00080C85090DE50AF50EE50BF50FE50C2558
:1013EA000D250E250FF51075110D75120A7B007A61
:0613FA0000790C02162D23
:0818F0008F9F3002FDC20222AD
:06152A008B138A148915E1
:10153000E4F53DAF3DEF3395E0FEC3EF9407EE6475
:101540008094805019AB13AA14A915EF3395E08F3E
:1015500082F58312005EFF1218F0053D80D57F00F2
:011560002268
:081400008F088D098A0A8B0B8D
:101408007E007F077D007B007A00790C12028385BD
:10141800080C85090DE50AF50EE50BF50FE50C2519
:101428000D250E250FF51075110D75120A7B007A22
:0614380000790C02152AE8
:0E187C00E54730E706E4F5477F01227F0022B2
:0A1896003000FDC200859F3EAF3E0A
:0118A0002225
:1012F7001218968F46E54754807039E54764407069
:1013070009EF640A702B75478022E546640D700467
:1013170075474022743F2547F8A6460547E53F64D1
:10132700FA6003E4F547D3E5479407748094804057
:0513370003E4F547226C
:1015980012187CEF602CE541FEE5428E49F54A7E43
:1015A800007F077D007B007A00793F120283E549BE
:1015B8007010E54A24BC60072411700602184D1209
:0315C800185D2289
:0300230002186D53
:0F186D00309904C299D201309804C298D2033244
:03003B000216B4F6
:1016B400C0E0C0D075D000C000C007E59D30E10592
:1016C400539DFDD202E59D30E008539DFED20012E9
:0B16D40012F7D007D000D0D0D0E032D9
:04001E0043CF10229A
:0400260043CF102292
:0419160053CF402249
:10184D00E4F524F523F522F5217536117561642231
:10185D00E4F524F523F522F52175362275610F2265
:10147B007B007A0079251215FDEC4D4E4F602D7BCC
:10148B00007A0079257F327E007D007C001217C226
:10149B00E536FB3395E0FA7DFB7FFA1213C2E53795
:0D14AB00FB3395E0FA7DFB7FFA121400225E
:1007B300900063E020E70302098C547FF012099252
:1007C3008F3B8E3A8D398C381202490802000000A3
:1007D3000808450000001008730000002008A1006D
:1007E30000100008CF0000400008F300008000095B
:1007F3001D000400000944000800000000096BE428
:100803007F08FEFDFCAB24AA23A922A821C3120161
:10081300647003020989E55F7003020989E47524A2
:1008230008F523F522F5210535E53530E008753661
:100833001175373380067536227537441217DE0279
:100843000989E47F10FEFDFCAB24AA23A922A82179
:10085300C31201647003020989E55F700302098909
:10086300E4752410F523F522F52112156102098997
:10087300E47F20FEFDFCAB24AA23A922A821C312F6
:1008830001647003020989E55F7003020989E47555
:100893002420F523F522F521753603020989E4FFA7
:1008A3007E10FDFCAB24AA23A922A821C312016454
:1008B3007003020989E55F7003020989E4F5247571
:1008C3002310F522F521753609020989E4FF7E40DC
:1008D300FDFCAB24AA23A922A821C312016470033F
:1008E300020989E4F524752340F522F521020989DB
:1008F300E4FF7E80FDFCAB24AA23A922A821C31216
:1009030001647003020989E55F607BE4F5247523C4
:1009130080F522F521753601806CE4FFFE7D04FC31
:10092300AB24AA23A922A821C31201646058E55F5E
:100933006054E4F524F523752204F521753602800D
:1009430045E4FFFE7D08FCAB24AA23A922A821C30A
:100953001201646031E55F602DE4F524F52375220F
:1009630008F521753604801EE4FFFEFDFCAB24AAC6
:1009730023A922A821C3120164600BE4F524F52303
:0F098300F522F521F53612191A12159802147B78
:0A18B700439A01539BFE75610F2256
:101709000560AF60EF3395E0FED3EF9464EE64803B
:1017190094804003E4F560C3E5616480F8E56064A2
:0A17290080984003C28022D2802283
:1017DE00AF61EF3395E0FEEF640F4E7004756164F8
:0B17EE0022EF64644E700375610F224F
:0A18C100439A06539BF95380F92265
:10138000E559601E0556E55670020555D39420E5D3
:10139000559403400DE4F555F556F559755A01532A
:1013A00080F9E55A601B0558E55870020557D3943B
:1013B00020E5579403400AE4F557F558755901F5AF
:0213C0005A22AF
:10156100AF54EF3395E04F70177554015380F94331
:101571008002F555F556F557F558755901F55A227A
:10158100E4F5545380F9438004F555F556F557F5C4
:0715910058F559755A0122BB
:04182C0041008600F1
:100BE10075F00290006712023DE0FEA3E0FFE513FD
:100BF10075F00290002102023DE51275F0029000AD
:100C01000102023DE51275F00290004102023D74BD
:100C1100312516F582E43400F58322D3E5149FEEE5
:100C21006480F8E5136480982274512512F582E4FA
:100C31003400F58322D3FFED9FEE6480F8EC6480ED
:100C4100982274772512F582E43400F58322E004BA
:100C5100F074112512F582E43400F58322E5137551
:100C6100F00290006702023DE4F0FFFEFDFCAB4E96
:100C7100AA4DA94CA84BC3020164FEC3E5159FEE22
:100C81006480F8E51464809822E54E5552FFE54DE5
:100C91005551FEE54C5550FDE54B554FFC227E006C
:100CA100900082E0FCA3E0FD12008B8EE78FE67FCF
:100CB100022274392512F582E43400F58322E0FE24
:100CC100A3E0FF75F00222A4FFE0C39FE5F064807A
:100CD100F8748098227D0A12009DAD037C00020009
:100CE1008BE0FCA3E0C39F22900066E0FB3395E01C
:0F0CF100FAEBAE0222900066E0FF3395E0FE22A0
:0C188A00EF4E6007EF1F70F81E80F52283
:020E47008F1BFF
:100E490012000E900089EFF0AF1B12183BEFFB90D8
:100E59000083E025E0FF900082E033FE7C00120C65
:100E6900D6E51B120BFC120CE2EC9E50099000898E
:100E7900E06049148036AF1B12183BEFFB900082EB
:100E8900E0FEA3E0FF7C007D0712008B120CD675F3
:100E9900F002E51B120BFFE0FCA3E0D39FEC9E40A0
:100EA9001B900089E0FF647E6012EF04FF745925EE
:0C0EB9001BF582E43400F583EFF0D20555
:010EC500220A
:100F4200C206900087E0120BF1E5E5F0A3E5E4F0BC
:100F5200900087E004F0E0C39553400BE4F090006A
:100F620063E04480F08002D2067F0212165BEFC477
:100F720054F0F5E1900087E0FF12183B120C9F122B
:100F8200165BEFC454F0FEC006E4FF12165BD0E01D
:100F92002FF5E1900087E0FF12000EE5E254804F4A
:100FA200F5E2900087E02419F582E43400F583E04D
:090FB2004480F5E8300602D2EE9D
:010FBB002213
:100FBC0075FE8543FF20D2AFC205E4900087F09008
:100FCC000063F01212B0E4FF12165BEF2401FDE493
:100FDC0033FC7E0B7FB812009D900082EEF0A3EFE5
:100FEC00F0E4FF12183B120C9F12165BEFC454F086
:100FFC00FEC006E4FF12165BD0E02FF5E17F041271
:10100C00165BEF6008E5E254804480F5E27F011244
:10101C00165B8FE312121D43A910900019E0448057
:08102C00F5E812117002177DB6
:03191A00D2EE22E8
:10173300E4FD900063E0547FF0D2EE900063E0207C
:10174300E7127FE87E0312188A43CF100DEDC3948E
:041753003240E82216
:01175700226F
:10117000750820121733E4F509E509C39553501B90
:10118000E509120BF1120CBFE509120BFFEEF0A3FB
:10119000EFF0AF09120E47050980DEAF081508EF22
:1011A00070D11217A11218F88F08121733E4F5093D
:1011B000E509C395535009AF09120D00050980F0E8
:0711C000AF081508EF70E312
:0111C7002205
:10177D00E4FFEFC39553501B75F002EF120BF4E02D
:10178D00FCA3E0FD75F002EF120BFFECF0A3EDF002
:03179D000F80DFDB
:0117A0002226
:10175800E4900088F0F511E511C39553500EAF11D0
:10176800120D00AF1112040B051180EBAF4EAE4DF8
:04177800AD4CAC4B7D
:01177C00224A
:02040B008F124E
:10040D00E4F51A75F002EF120BFF120CBFE5121294
:10041D000BF4120CE2F514EC9EF513E47F01FEFDD6
:10042D00FCA912A80112019C8F528E518D508C4F38
:10043D00AF121216888E188F19C3E5149519E51889
:10044D00120C2140057515018003E4F515E51564C1
:10045D0001600302059274312512120C14E0C3944D
:10046D00FA500A74312512120C14E004F0120C8AA1
:10047D00E4FBFAF9F8C312016460030205759000FC
:10048D0000E0F517121923EF6028E4F515F516E5D0
:10049D0016C39553500F120C10E0C3940140020582
:1004AD0015051680EAE515C394034006740F25174C
:1004BD00F51774312512120C14E0C3951750030271
:1004CD000575E4F515121900EF7051F516E516C313
:1004DD009553501AE512651660101218CB120C10B8
:1004ED00E0C39F40057515018004051680DF1219C4
:1004FD0023EF7052E515704EF516E516C395535062
:10050D0045E512651660111218CB74392516120CBB
:10051D00B7E0C39F4002802B051680DE121923EF32
:10052D007024F517F516E516C39553500F120C10E0
:10053D00E0C3940240020517051680EAE517C3943F
:10054D00034003751501E515B40102D204E54E45CE
:10055D0052FFE54D4551FEE54C4550FDE54B454FF0
:10056D008F4E8E4D8D4CF54B120C2AE4F0120C4330
:10057D00E4F0120C05E4F0A3F074112512F582E4F9
:10058D003400020768AF12121813120C1C40081227
:10059D000CB3E004F0800B900088E004F0120CB373
:1005AD00E4F0120CF6C3E49FFDE49EFCC3E5149D3C
:1005BD00EC120C214066120C1C5061120C2AE41234
:1005CD000C51120C6960030206D5120C05E513855A
:1005DD0014F01200F21218AC120C05E0FCA3E0C3EB
:1005ED00120C394009120BFAE475F0018021121832
:1005FD00ACC3E49FFFE49EFE120C05E0FCA3E0C338
:10060D00120C3940030206D5120BFA74FFF5F012E5
:10061D0000F2120C05E4F0A3F00206D5900066E09E
:10062D00FFFD3395E0FCC3E49DFDE49CFCC3E514A4
:10063D009DEC120C21505A120C2A120C4FE4F012A0
:10064D000C2AE0FE75F00A84E5F07037EEC3946471
:10065D00400E120C2AE4F0D20590007F04F08023A6
:10066D00120BFAC083C082E0FCA3E0FDEFA2E713FA
:10067D00FF3395E0FEC3ED9FFFEC9ED082D083F05B
:10068D00A3EFF0900081E06512703D74FFF002065B
:10069D00D5120CF6120C1C402F120C2A120C69707C
:1006AD0027120C52120C4FE0B4201D120C52E4F024
:1006BD00900066E0A2E713A2E713FF3395E0FE1268
:1006CD000BFAEE8FF01200F2120C8A4D4E4F7003A2
:1006DD00020774E519AE187802CEA2E713CE13D82F
:1006ED00F8FFC3E5199FFFE5189EFEC3120C1D50C0
:1006FD006F120C43E004F01219088F17E4F516E59C
:10070D0016C39553500F120C10E0C394014002050F
:10071D0015051680EAE515C394034006900000E028
:10072D00F517120C43E0C39517407A120C43E4F011
:10073D00AF52AE51AD50AC4F120157E54E5FFFE5D4
:10074D004D5EFEE54C5DFDE54B5C8F4E8E4D8D4C4B
:10075D00F54B74312512F582E43400F583E4F02273
:10076D00120C43E014F02274312512120C14120CE9
:10077D00697005AF12120E47E5531465127026907D
:10078D000088E0C39553401DE4F516E516C3955357
:10079D00500D120C10E06003751501051680ECE587
:0507AD00157002C204FA
:0107B2002224
:1017A100E4FFEFC39553501875F002EF120BF4E00C
:1017B100FCA3E0FDEF120C60ECF0A3EDF00F80E272
:0117C1002205
:020D00008F134F
:100D0200EF120BE1120CE2F515EC9EF514AF131283
:100D12001688AD07AC06D3E5159DEC120C81500B7D
:100D2200C3E49DFFE49C120C7B500B120BEFE0FE20
:100D3200A3E0FF020DA8ECA2E713FEED13FFD3120E
:100D42000C7D500BC3E49FFFE49E120C7B502712D4
:100D52000C5EE0FCA3E0FDECC313FEED13FFC3ED5C
:100D62009FFDEC9EFC120BEFE0C313FEA3E0132DDC
:100D7200FFEC3EFE8030120C5EE0FCA3E0FDAE0410
:100D82007803CEC313CE13D8F9FFC3ED9FFDEC9EBB
:100D9200FC120BEFE0FEA3E07803CEC313CE13D810
:100DA200F92DFFEC3EFE120C5EEEF0A3EFF0E51320
:080DB200120BE1EEF0A3EFF0DB
:010DBA002216
:03191D00A20522FE
:03192000D20522CB
:10121D00E4FFEFC39553502B74312F120C14E4F0EF
:10122D0074512F120C2EE4F074772F120C47E4F04A
:10123D00EF120C07E4F0A3F074392F120CB7E4F0A1
:10124D000F80CFE4F54EF54DF54CF54B90008174C4
:0B125D00FFF0E4900084F0A3F0C20555
:011268002263
:020AC2008F1192
:100AC400900086E0C394034035E4F090007FE0702A
:100AD40022F512E512C39553501975F002E512126E
:100AE4000C63120CBFE512120BFFEEF0A3EFF0053E
:100AF4001280E012121DC205E490007FF0229000E3
:100B040080E004F0E0B511081217A1E4900081F030
:100B1400900080E0D395115003020BE0E4F512E558
:100B240012C39553507A75F002E512120C63120C3D
:100B3400BFE512120BF4120CE2FFEC9EAD07FC9021
:100B4400007FE07029120CE97802C333CE33CED88B
:100B5400F9120C364040E49BFFE49AFEEF7802C39E
:100B640033CE33CED8F9C3120C37502A8032120C4C
:100B7400E97803C333CE33CED8F9120C364017E4E8
:100B84009BFFE49AFEEF7803C333CE33CED8F9FF4C
:100B9400C3120C38400AAF12120D000512020B23C7
:100BA400E512B55306900081E004F0E51175F008F4
:100BB400900080120CC84024E4F0C204900086E047
:100BC40004F0E51175F004900081120CC8400DE4A6
:0C0BD400900086F012177D12121DC20561
:010BE00022F2
:10110E000000000000000005000A0BB800C80064D3
:10111E0000020000000000040000FFFFFFFFFFFFC1
:10112E0000140226040817050154022604081505AA
:10113E000161022604080F05009802260408140512
:10114E00014C02260408150500A002260408140509
:10115E00014A022604081305011002260408100590
:02116E00011965
:0418300041007F00F4
:0B18A100901118E493FE740193FF22E5
:0B18AC0090111CE493FE740193FF22D6
:0818F800901116740193FF2208
:031923007F01221F
:10168800AD07ED75F008A42436F582E43411F5832E
:10169800E493FEED75F008A42437F582E43411F5DF
:0C16A80083E4937C002400FFEC3EFE2253
:10183B00EF75F008A42433F582E43411F583E493B7
:02184B00FF227A
:08190000901110740193FF2205
:0D000E0074592FF582E43400F583E0FF22E1
:08190800900000E0C313FF2270
:0A18CB00900000E075F00384FF2296
:10181300121688EF7803C333CE33CED8F9FF7C009A
:051823007D0A02009D9A
:1011C800E4FBFAF50BF50AF509F508750B38750A0D
:1011D800D075090CF508EBC39417748094805032CD
:1011E800AF0BAE0AAD09AC0878011201758F0B8EF2
:1011F8000A8D098C0830D71774192AF582E434004F
:10120800F583EBF00AEAC394087480948050030BCA
:0412180080C48A53B1
:01121C0022AF
:10165B00EF146012146014146011146015240470DC
:10166B001990113080089011318003901132E4935E
:0D167B00FF22901122740193FF227F0022B4
:1012B000901114740193900000F090112E7401931A
:1012C000900066F01211C8E4FFEFC395535020EF71
:1012D00075F008A42434F582E43411F583E493FE18
:1012E00074592FF582E43400F583EEF00F80DAE4D0
:0612F000900064F0A3F081
:0112F60022D5
:10099200E4F508F50CF50BF50AF509F510F50FF578
:1009A2000EF50D12191D5003020AAE1217588F0CC4
:1009B2008E0B8D0A8C09E4FBEBC395535047AF0CA9
:1009C200AE0BAD0AAC0978011201758F0C8E0B8D3E
:1009D2000A8C0930D72CE47F01FEFDFC74192BF53B
:1009E20082E43400F583E0F9F812019CE5104FF53A
:1009F20010E50F4EF50FE50E4DF50EE50D4CF50D1C
:100A020005080B80B3AF087E00C3EF940274809494
:100A1200804018D204EF9403748094804005121928
:100A2200208008121900EF6002C20420042CE4FFA7
:100A3200FEFDFCAB10AA0FA90EA80DC31201646043
:100A420010900065E004F07006900064E004F0800D
:100A520020E4900064F0A3F08017900062E004F0BC
:100A62007006900061E004F0E4F510F50FF50EF564
:100A72000D1218A1D3900065E09F900064E09E40A3
:100A82000A121920E4900064F0A3F0D3900062E00F
:100A9200942C900061E09401401D12192090007F77
:100AA2007401F0E4900061F0A3F0800B90111EE459
:0F0AB200740193FF120AC2AF10AE0FAD0EAC0D60
:010AC1002212
:03005B000214B8D4
:1014B800C0E0C0F0C083C082C0D075D000C000C0FA
:1014C80001C002C003C004C005C006C007120F4215
:1014D800D007D006D005D004D003D002D001D00068
:0B14E800D0D0D082D083D0F0D0E03212
:06183400041C000000008E
:0A18D500E4F51FF51EF51DF51C22B9
:1017F900AF1FAE1EAD1DAC1CEF2401F51FE43EF575
:0A1809001EE43DF51DE43CF51C2231
:0918DF00AF1FAE1EAD1DAC1C22B2
:1017C2008F0B8E0A8D098C081218DF1201DFAF0B06
:0C17D200AE0AAD09AC089000040201F959
:1015FD008B088A09890A9000041201AF12021DC3DB
:10160D00E51F9BFBE51E9AFAE51D99F9E51C98F877
:10161D00C3120164E440047F018001FFFEFDFC2242
:100DC700020003E493A3F8E493A34003F68001F23F
:100DD70008DFF48029E493A3F85407240CC8C3332D
:100DE700C4540F4420C8834004F456800146F6DFFC
:100DF700E4800B0102040810204080901828E47E4C
:100E0700019360BCA3FF543F30E509541FFEE493F0
:100E1700A360010ECF54C025E060A840B8E493A3B7
:100E2700FAE493A3F8E493A3C8C582C8CAC583CAE2
:100E3700F0A3C8C582C8CAC583CADFE9DEE780BE9A
:01183A0000AD
:10005E00BB010CE58229F582E5833AF583E0225057
:10006E0006E92582F8E622BBFE06E92582F8E222A1
:0D007E00E58229F582E5833AF583E49322BB
:10008B00EF8DF0A4A8F0CF8CF0A428CE8DF0A42E89
:02009B00FE2243
:10009D00BC000BBE0029EF8DF084FFADF022E4CC47
:1000AD00F875F008EF2FFFEE33FEEC33FCEE9DEC10
:1000BD00984005FCEE9DFE0FD5F0E9E4CEFD22ED56
:1000CD00F8F5F0EE8420D21CFEADF075F008EF2FA0
:1000DD00FFED33FD4007985006D5F0F222C398FD91
:0500ED000FD5F0EA222E
:1000F200C5F0F8A3E028F0C5F0F8E5821582700299
:060102001583E038F02235
:10010800E88FF0A4CC8BF0A42CFCE98EF0A42CFC96
:100118008AF0EDA42CFCEA8EF0A4CDA8F08BF0A414
:100128002DCC3825F0FDE98FF0A42CCD35F0FCEB73
:100138008EF0A4FEA9F0EB8FF0A4CFC5F02ECD3938
:0F014800FEE43CFCEAA42DCE35F0FDE43CFC22A5
:10133C00C2D5E830E70FB2D5E4C39BFBE49AFAE4DC
:10134C0099F9E498F8EC30E717B2D512137212023F
:10135C00EBE4C39BFBE49AFAE499F9E498F8800374
:10136C001202EB30D50DE4C39FFFE49EFEE49DFD1D
:04137C00E49CFC22CF
:0D015700CFF4CFCEF4CECDF4CDCCF4CC223D
:10016400EB9FF5F0EA9E42F0E99D42F0E89C45F0F1
:010174002268
:10017500E8600FECC313FCED13FDEE13FEEF13FF68
:03018500D8F1228C
:10018800E86010ECA2E713FCED13FDEE13FEEF138D
:04019800FFD8F0227A
:10019C00E8600FEFC333FFEE33FEED33FDEC33FCC1
:0301AC00D8F12265
:1001AF00BB010DE58229F582E5833AF583020389C8
:1001BF005007E92582F802037DBBFE07E92582F887
:1001CF00020395E58229F582E5833AF5830203A1BF
:1001DF00BB010789828A830203F35005E9F8020302
:0A01EF00E7BBFE05E9F80203FF225A
:1001F900BB010DE58229F582E5833AF5830203F314
:100209005007E92582F80203E7BBFE07E92582F8D2
:040219000203FF22BB
:10021D00BB010789828A830203BE5005E9F80203F8
:10022D00B1BBFE05E9F80203CA89828A830203D7AE
:0C023D00A42582F582E5F03583F58322CC
:10024900D083D082E4937012740193700DA3A393A9
:10025900F8740193F5828883E4737402936C7012C5
:100269007403936D700C7404936E70067405936F28
:0A02790060DDA3A3A3A3A3A380CA22
:10028300EF4E6012EF60010EEDBB010B89828A8392
:10029300F0A3DFFCDEFA2289F05007F709DFFCA99F
:0C02A300F022BBFEFCF309DFFCA9F022F6
:1002AF0075F008758200EF2FFFEE33FECD33CDCC06
:1002BF0033CCC58233C5829BED9AEC99E582984089
:1002CF000CF582EE9BFEED9AFDEC99FC0FD5F0D666
:1002DF00E4CEFBE4CDFAE4CCF9A88222B800C1B990
:1002EF000059BA002DEC8BF084CFCECDFCE5F0CBCE
:1002FF00F97818EF2FFFEE33FEED33FDEC33FCEB07
:10030F0033FB10D703994004EB99FB0FD8E5E4F9C1
:10031F00FA227818EF2FFFEE33FEED33FDEC33FCAE
:10032F00C933C910D7059BE99A4007EC9BFCE99AA2
:10033F00F90FD8E0E4C9FAE4CCFB2275F010EF2FE7
:10034F00FFEE33FEED33FDCC33CCC833C810D707E7
:10035F009BEC9AE899400AED9BFDEC9AFCE899F822
:0E036F000FD5F0DAE4CDFBE4CCFAE4C8F922B5
:0C037D00E6FC08E6FD08E6FE08E6FF22AC
:0C038900E0FCA3E0FDA3E0FEA3E0FF22E7
:0C039500E2FC08E2FD08E2FE08E2FF22A4
:1003A100E493FC740193FD740293FE740393FF22A2
:0D03B100E6FB08E6F908E6FA08E6CBF822BC
:0C03BE00E0F8A3E0F9A3E0FAA3E0FB22C2
:0D03CA00E2FB08E2F908E2FA08E2CBF822B3
:1003D700E493F8740193F9740293FA740393FB227C
:0C03E700ECF608EDF608EEF608EFF62242
:0C03F300ECF0A3EDF0A3EEF0A3EFF0227D
:0C03FF00ECF208EDF208EEF208EFF2223A
:00000001FF
