:03000000020DC727
:0C0DC700787FE4F6D8FD75815F020E0E07
:080003001215D11218F680FB62
:1015D1001218FC1218BB12002E1218A712189D1215
:1015E100153B7D807C257F02120ED27D807C257F7C
:0F15F10002121040120FC812001E7F010216E1F5
:0618F6001200260207B3F8
:1016E100EFFD3395E0FCD3ED9401EC6480948040F0
:1016F100037F0222ED64014C7005D2AF7F0122EF1E
:0A1701003395E04F7003C2AFFF22E2
:0C002E0043A12053A2DFC2A57558012297
:1010B300E4FF7E40FDFCAB3BAA3AA939A838C31232
:1010C3000164704BE55470057554010555E55530C1
:1010D300E01EC3E55794B8E556940B50090557E550
:1010E300577033055622E4F556F557D2A5F5582225
:1010F300C3E55794B8E556940B50090557E5577067
:1011030015055622E4F556F557C2A575580122E494
:07111300F554F556F55722D3
:10153B00758E07438901758A18758CFCC28CD2A9EC
:10154B00D28C438920758B10758D10C28ED2ABD285
:10155B008EE4F5C9F5C875CBFE75CA70C2CAD2AD9B
:03156B00D2CA22BF
:03000B0002127569
:10127500C0E0C0F0C083C082C0D075D000C000C03F
:1012850001C002C003C004C005C006C007758A18A6
:10129500758CFC1217DF1212BC1210B3D007D006E2
:1012A500D005D004D003D002D001D000D0D0D08258
:0712B500D083D0F0D0E0323D
:03001B00020022BE
:0100220032AB
:03002B0002144F6D
:10144F00C0E0C0F0C083C082C0D075D000C000C063
:10145F0001C002C003C004C005C006C007C2CF123E
:10146F00170BD007D006D005D004D003D002D0017F
:0D147F00D000D0D0D082D083D0F0D0E032A9
:04180E00C101C10350
:100ED2008F088C098D0A5391F343920C4398504327
:100EE2008E02438920438780AF08EF3395E0FEFDF1
:100EF200FC7B407A42790F7800120108C006C007D5
:100F0200AE09AF0AAB07AA06E4F9F8D007D0061279
:100F1200138F78081201888F8DAF08EF3395E0FEAA
:100F2200FDFC7B407A42790F7800120108C006C0AE
:100F320007AE09AF0AAB07AA06E4F9F8D007D00654
:0C0F420012138F8F8BC28EC2ABD2AC2278
:101040008F088C098D0A53A1FC43A203758FC075CC
:101050009D50AF08EF3395E0FEFDFC7B407A42796E
:101060000F7800120108C006C007AE09AF0AAB072F
:10107000AA06E4F9F8D007D00612138F8F9EAF08A6
:10108000EF3395E0FEFDFC7B407A42790F78001249
:101090000108C006C007AE09AF0AAB07AA06E4F90B
:1010A000F8D007D00612138F78081201888F957533
:0310B000A9012271
:0818CE008F993001FDC20122D7
:06162F008B138A148915DB
:10163500E4F53CC3E53C9407748094805017AB13E4
:10164500AA14A915853C8275830012005EFF121845
:07165500CE053C80DE7F00A2
:01165C00226B
:0813D3008F088D098A0A8B0BBB
:1013DB007E007F077D007B007A00790C12028385EB
:1013EB00080C85090DE50AF50EE50BF50FE50C2547
:1013FB000D250E250FF51075110D75120A7B007A50
:06140B0000790C02162F0F
:0818D6008F9F3002FDC20222C7
:061504008B138A14891507
:10150A00E4F53DAF3DEF3395E0FEC3EF9407EE649B
:10151A008094805019AB13AA14A915EF3395E08F64
:10152A0082F58312005EFF1218D6053D80D57F0032
:01153A00228E
:081411008F088D098A0A8B0B7C
:101419007E007F077D007B007A00790C12028385AC
:10142900080C85090DE50AF50EE50BF50FE50C2508
:101439000D250E250FF51075110D75120A7B007A11
:0614490000790C021504FD
:0E186200E54730E706E4F5477F01227F0022CC
:0A187C003000FDC200859F3EAF3E24
:01188600223F
:10134A0012187C8F46E54754807039E5476440702F
:10135A0009EF640A702B75478022E546640D700414
:10136A0075474022743F2547F8A6460547E53F647E
:10137A00FA6003E4F547D3E5479407748094804004
:05138A0003E4F5472219
:10156E00121862EF602CE541FEE5428E49F54A7E87
:10157E00007F077D007B007A00793F120283E549E8
:10158E007010E54A24BC600724117006021833124D
:03159E00184322CD
:030023000218536D
:0F185300309904C299D201309804C298D203325E
:03003B000216B6F4
:1016B600C0E0C0D075D000C000C007E59D30E10590
:1016C600539DFDD202E59D30E008539DFED20012E7
:0B16D600134AD007D000D0D0D0E03283
:04001E0043CF10229A
:0400260043CF102292
:0418FC0053CF402264
:10183300E4F524F523F522F521753611755F64224D
:10184300E4F524F523F522F521753622755F0F2281
:10148C007B007A0079251215A1EC4D4E4F602D7B17
:10149C00007A0079257F327E007D007C0012003EB0
:1014AC00E536FB3395E0FA7DFB7FFA1213D3E53773
:0D14BC00FB3395E0FA7DFB7FFA121411223C
:1007B300900063E020E703020998547FF012099E3A
:1007C3008F3B8E3A8D398C38120249080E00000097
:1007D30008085100000010087F0000002009950060
:1007E30000010009950000020008AD000010000898
:1007F300DB0000400008FF0000800009290004001E
:100803000009500008000000000977E47F08FEFD9E
:10081300FCAB24AA23A922A821C3120164700302FA
:100823000995E5587003020995E4752408F523F545
:1008330022F5210535E53530E00875361175373376
:1008430080067536227537441217C4020995E47F72
:1008530010FEFDFCAB24AA23A922A821C312016424
:100863007003020995E5587003020995E475241095
:10087300F523F522F521121600020995E47F20FEE7
:10088300FDFCAB24AA23A922A821C312016470038F
:10089300020995E5587003020995E4752420F523B0
:1008A300F522F521753603020995E4FF7E10FDFC60
:1008B300AB24AA23A922A821C3120164700302094D
:1008C30095E5587003020995E4F524752310F52284
:1008D300F521753609020995E4FF7E40FDFCAB2442
:1008E300AA23A922A821C31201647003020995E473
:1008F300F524752340F522F521020995E4FF7E8056
:10090300FDFCAB24AA23A922A821C312016470030E
:10091300020995E558607BE4F524752380F522F5FB
:1009230021753601806CE4FFFE7D04FCAB24AA2311
:10093300A922A821C31201646058E5586054E4F564
:1009430024F523752204F5217536028045E4FFFE64
:100953007D08FCAB24AA23A922A821C31201646049
:1009630031E558602DE4F524F523752208F521754A
:100973003604801EE4FFFEFDFCAB24AA23A922A8B3
:1009830021C3120164600BE4F524F523F522F5215C
:0B099300F53612190012156E02148CCC
:0A189D00439A01539BFE755F0F2272
:10170B00055EAF5EEF3395E0FED3EF9464EE64803D
:10171B0094804003E4F55EC3E55F6480F8E55E64A6
:0A172B0080984003C28022D2802281
:1017C400AF5FEF3395E0FEEF640F4E7004755F6416
:0B17D40022EF64644E7003755F0F226B
:0A18A700439A06539BF95380F9227F
:1012BC00E55C601F055AAF5AEF3395E0FED3EF940F
:1012CC00DCEE64809485400BE4F55AF55C755D01A9
:1012DC005380F9E55D601F055BAF5BEF3395E0FE76
:1012EC00D3EF94DCEE64809485400BE4F55B755C85
:0712FC0001F55D5380F922AA
:10160000AF59EF3395E04F70137559015380F9438B
:101610008002F55AF55B755C01F55D22E4F55953DE
:0F16200080F9438004F55AF55BF55C755D012296
:04181200410086000B
:100BED0075F00290006712023DE0FEA3E0FFE513F1
:100BFD0075F00290002102023DE51275F0029000A1
:100C0D000102023DE51275F00290004102023D74B1
:100C1D00312516F582E43400F58322D3E5149FEED9
:100C2D006480F8E5136480982274512512F582E4EE
:100C3D003400F58322D3FFED9FEE6480F8EC6480E1
:100C4D00982274772512F582E43400F58322E004AE
:100C5D00F074112512F582E43400F58322E5137545
:100C6D00F00290006702023DE4F0FFFEFDFCAB4E8A
:100C7D00AA4DA94CA84BC3020164FEC3E5159FEE16
:100C8D006480F8E51464809822E54E5552FFE54DD9
:100C9D005551FEE54C5550FDE54B554FFC227E0060
:100CAD00900082E0FCA3E0FD12008B8EE78FE67FC3
:100CBD00022274392512F582E43400F58322E0FE18
:100CCD00A3E0FF75F00222A4FFE0C39FE5F064806E
:100CDD00F8748098227D0A12009DAD037C000200FD
:100CED008BE0FCA3E0C39F22900066E0FB3395E010
:0F0CFD00FAEBAE0222900066E0FF3395E0FE2294
:0C187000EF4E6007EF1F70F81E80F5229D
:020E53008F1BF3
:100E550012000E900089EFF0AF1B121821EFFB90E6
:100E65000083E025E0FF900082E033FE7C00120C59
:100E7500E2E51B120C08120CEEEC9E50099000895D
:100E8500E06049148036AF1B121821EFFB900082F9
:100E9500E0FEA3E0FF7C007D0712008B120CE275DB
:100EA500F002E51B120C0BE0FCA3E0D39FEC9E4087
:100EB5001B900089E0FF647E6012EF04FF745925E2
:0C0EC5001BF582E43400F583EFF0D20549
:010ED10022FE
:100F4E00C206900087E0120BFDE5E5F0A3E5E4F0A4
:100F5E00900087E004F0E0C39553400BE4F090005E
:100F6E0063E04480F08002D2067F0212165DEFC469
:100F7E0054F0F5E1900087E0FF121821120CAB122D
:100F8E00165DEFC454F0FEC006E4FF12165DD0E00D
:100F9E002FF5E1900087E0FF12000EE5E254804F3E
:100FAE00F5E2900087E02419F582E43400F583E041
:090FBE004480F5E8300602D2EE91
:010FC7002207
:100FC80075FE8543FF20D2AFC205E4900087F090FC
:100FD8000063F0121303E4FF12165DEF2401FDE431
:100FE80033FC7E0B7FB812009D900082EEF0A3EFD9
:100FF800F0E4FF121821120CAB12165DEFC454F086
:10100800FEC006E4FF12165DD0E02FF5E17F041262
:10101800165DEF6008E5E254804480F5E27F011236
:10102800165D8FE312122943A910900019E044803D
:08103800F5E812117C02177F9C
:03190000D2EE2202
:10173500E4FD900063E0547FF0D2EE900063E0207A
:10174500E7127FE87E0312187043CF100DEDC394A6
:041755003240E82214
:01175900226D
:10117C00750820121735E4F509E509C39553501B82
:10118C00E509120BFD120CCBE509120C0BEEF0A3CA
:10119C00EFF0AF09120E53050980DEAF081508EF0A
:1011AC0070D11217A31218DE8F08121735E4F50947
:1011BC00E509C395535009AF09120D0C050980F0D0
:0711CC00AF081508EF70E306
:0111D30022F9
:10177F00E4FFEFC39553501B75F002EF120C00E01E
:10178F00FCA3E0FD75F002EF120C0BECF0A3EDF0F3
:03179F000F80DFD9
:0117A2002224
:10175A00E4900088F0F511E511C39553500EAF11CE
:10176A00120D0CAF1112040B051180EBAF4EAE4DEA
:04177A00AD4CAC4B7B
:01177E002248
:02040B008F124E
:10040D00E4F51A75F002EF120C0B120CCBE512127B
:10041D000C00120CEEF514EC9EF513E47F01FEFDBD
:10042D00FCA912A80112019C8F528E518D508C4F38
:10043D00AF1212168A8E188F19C3E5149519E51887
:10044D00120C2D40057515018003E4F515E51564B5
:10045D0001600302059274312512120C20E0C39441
:10046D00FA500A74312512120C20E004F0120C9689
:10047D00E4FBFAF9F8C312016460030205759000FC
:10048D0000E0F517121909EF6028E4F515F516E5EA
:10049D0016C39553500F120C1CE0C3940140020576
:1004AD0015051680EAE515C394034006740F25174C
:1004BD00F51774312512120C20E0C3951750030265
:1004CD000575E4F5151218E6EF7051F516E516C32E
:1004DD009553501AE512651660101218B1120C1CC6
:1004ED00E0C39F40057515018004051680DF1219C4
:1004FD0009EF7052E515704EF516E516C39553507C
:10050D0045E512651660111218B174392516120CD5
:10051D00C3E0C39F4002802B051680DE121909EF40
:10052D007024F517F516E516C39553500F120C1CD4
:10053D00E0C3940240020517051680EAE517C3943F
:10054D00034003751501E515B40102D204E54E45CE
:10055D0052FFE54D4551FEE54C4550FDE54B454FF0
:10056D008F4E8E4D8D4CF54B120C36E4F0120C4F18
:10057D00E4F0120C11E4F0A3F074112512F582E4ED
:10058D003400020768AF121217F9120C2840081236
:10059D000CBFE004F0800B900088E004F0120CBF5B
:1005AD00E4F0120D02C3E49FFDE49EFCC3E5149D2F
:1005BD00EC120C2D4066120C285061120C36E41210
:1005CD000C5D120C7560030206D5120C11E5138536
:1005DD0014F01200F2121892120C11E0FCA3E0C3F9
:1005ED00120C454009120C06E475F0018021121819
:1005FD0092C3E49FFFE49EFE120C11E0FCA3E0C346
:10060D00120C4540030206D5120C0674FFF5F012CC
:10061D0000F2120C11E4F0A3F00206D5900066E092
:10062D00FFFD3395E0FCC3E49DFDE49CFCC3E514A4
:10063D009DEC120C2D505A120C36120C5BE4F0127C
:10064D000C36E0FE75F00A84E5F07037EEC3946465
:10065D00400E120C36E4F0D20590007F04F080239A
:10066D00120C06C083C082E0FCA3E0FDEFA2E713ED
:10067D00FF3395E0FEC3ED9FFFEC9ED082D083F05B
:10068D00A3EFF0900081E06512703D74FFF002065B
:10069D00D5120D02120C28402F120C36120C75704B
:1006AD0027120C5E120C5BE0B4201D120C5EE4F000
:1006BD00900066E0A2E713A2E713FF3395E0FE1268
:1006CD000C06EE8FF01200F2120C964D4E4F700389
:1006DD00020774E519AE187802CEA2E713CE13D82F
:1006ED00F8FFC3E5199FFFE5189EFEC3120C2950B4
:1006FD006F120C4FE004F01218EE8F17E4F516E5AB
:10070D0016C39553500F120C1CE0C3940140020503
:10071D0015051680EAE515C394034006900000E028
:10072D00F517120C4FE0C39517407A120C4FE4F0F9
:10073D00AF52AE51AD50AC4F120157E54E5FFFE5D4
:10074D004D5EFEE54C5DFDE54B5C8F4E8E4D8D4C4B
:10075D00F54B74312512F582E43400F583E4F02273
:10076D00120C4FE014F02274312512120C20120CD1
:10077D00757005AF12120E53E55314651270269065
:10078D000088E0C39553401DE4F516E516C3955357
:10079D00500D120C1CE06003751501051680ECE57B
:0507AD00157002C204FA
:0107B2002224
:1017A300E4FFEFC39553501875F002EF120C00E0FD
:1017B300FCA3E0FDEF120C6CECF0A3EDF00F80E264
:0117C3002203
:020D0C008F1343
:100D0E00EF120BED120CEEF515EC9EF514AF13125F
:100D1E00168AAD07AC06D3E5159DEC120C8D500B63
:100D2E00C3E49DFFE49C120C87500B120BFBE0FEFC
:100D3E00A3E0FF020DB4ECA2E713FEED13FFD312F6
:100D4E000C89500BC3E49FFFE49E120C87502712B0
:100D5E000C6AE0FCA3E0FDECC313FEED13FFC3ED44
:100D6E009FFDEC9EFC120BFBE0C313FEA3E0132DC4
:100D7E00FFEC3EFE8030120C6AE0FCA3E0FDAE04F8
:100D8E007803CEC313CE13D8F9FFC3ED9FFDEC9EAF
:100D9E00FC120BFBE0FEA3E07803CEC313CE13D8F8
:100DAE00F92DFFEC3EFE120C6AEEF0A3EFF0E51308
:080DBE00120BEDEEF0A3EFF0C3
:010DC600220A
:03190300A2052218
:03190600D20522E5
:10122900E4FFEFC39553502B74312F120C20E4F0D7
:1012390074512F120C3AE4F074772F120C53E4F026
:10124900EF120C13E4F0A3F074392F120CC3E4F07D
:101259000F80CFE4F54EF54DF54CF54B90008174B8
:0B126900FFF0E4900084F0A3F0C20549
:011274002257
:020ACE008F1186
:100AD000900086E0C394034035E4F090007FE0701E
:100AE00022F512E512C39553501975F002E5121262
:100AF0000C6F120CCBE512120C0BEEF0A3EFF0050D
:100B00001280E0121229C205E490007FF0229000CA
:100B100080E004F0E0B511081217A3E4900081F022
:100B2000900080E0D395115003020BECE4F512E540
:100B300012C39553507A75F002E512120C6F120C25
:100B4000CBE512120C00120CEEFFEC9EAD07FC90F0
:100B5000007FE07029120CF57802C333CE33CED873
:100B6000F9120C424040E49BFFE49AFEEF7802C386
:100B700033CE33CED8F9C3120C43502A8032120C34
:100B8000F57803C333CE33CED8F9120C424017E4C4
:100B90009BFFE49AFEEF7803C333CE33CED8F9FF40
:100BA000C3120C44400AAF12120D0C0512020B2F97
:100BB000E512B55306900081E004F0E51175F008E8
:100BC000900080120CD44024E4F0C204900086E02F
:100BD00004F0E51175F004900081120CD4400DE48E
:0C0BE000900086F012177F121229C20547
:010BEC0022E6
:10111A000000000000000005000A0BB800C80064C7
:10112A0000020000000000040000FFFFFFFFFFFFB5
:10113A00001402260408170501540226040815059E
:10114A000161022604080F05009802260408140506
:10115A00014C02260408150500A0022604081405FD
:10116A00014A022604081305011002260408100584
:02117A00011959
:0418160041007F000E
:0B188700901124E493FE740193FF22F3
:0B189200901128E493FE740193FF22E4
:0818DE00901122740193FF2216
:031909007F012239
:10168A00AD07ED75F008A42442F582E43411F58320
:10169A00E493FEED75F008A42443F582E43411F5D1
:0C16AA0083E4937C002400FFEC3EFE2251
:10182100EF75F008A4243FF582E43411F583E493C5
:02183100FF2294
:0818E60090111C740193FF2214
:0D000E0074592FF582E43400F583E0FF22E1
:0818EE00900000E0C313FF228B
:0A18B100900000E075F00384FF22B0
:1017F90012168AEF7803C333CE33CED8F9FF7C00B3
:051809007D0A02009DB4
:1011D400E4FBFAF50BF50AF509F508750B38750A01
:1011E400D075090CF508EBC39417748094805032C1
:1011F400AF0BAE0AAD09AC0878011201758F0B8EE6
:101204000A8D098C0830D71774192AF582E4340042
:10121400F583EBF00AEAC394087480948050030BBE
:0412240080C48A53A5
:0112280022A3
:10165D00EF146012146014146011146015240470DA
:10166D001990113C800890113D800390113EE49338
:0D167D00FF2290112E740193FF227F0022A6
:10130300901120740193900000F090113A740193AE
:10131300900066F01211D4E4FFEFC395535020EF11
:1013230075F008A42440F582E43411F583E493FEB8
:1013330074592FF582E43400F583EEF00F80DAE47C
:06134300900064F0A3F02D
:011349002281
:10099E00E4F508F50CF50BF50AF509F510F50FF56C
:1009AE000EF50D1219035003020ABA12175A8F0CC4
:1009BE008E0B8D0A8C09E4FBEBC395535047AF0C9D
:1009CE00AE0BAD0AAC0978011201758F0C8E0B8D32
:1009DE000A8C0930D72CE47F01FEFDFC74192BF52F
:1009EE0082E43400F583E0F9F812019CE5104FF52E
:1009FE0010E50F4EF50FE50E4DF50EE50D4CF50D10
:100A0E0005080B80B3AF087E00C3EF940274809488
:100A1E00804018D204EF940374809480400512191C
:100A2E000680081218E6EF6002C20420042CE4FFD0
:100A3E00FEFDFCAB10AA0FA90EA80DC31201646037
:100A4E0010900065E004F07006900064E004F08001
:100A5E0020E4900064F0A3F08017900062E004F0B0
:100A6E007006900061E004F0E4F510F50FF50EF558
:100A7E000D121887D3900065E09F900064E09E40B1
:100A8E000A121906E4900064F0A3F0D3900062E01D
:100A9E00942C900061E09401401D12190690007F85
:100AAE007401F0E4900061F0A3F0800B90112AE441
:0F0ABE00740193FF120ACEAF10AE0FAD0EAC0D48
:010ACD002206
:03005B000214C9C3
:1014C900C0E0C0F0C083C082C0D075D000C000C0E9
:1014D90001C002C003C004C005C006C007120F4EF8
:1014E900D007D006D005D004D003D002D001D00057
:0B14F900D0D0D082D083D0F0D0E03201
:06181A00041C00000000A8
:0A18BB00E4F51FF51EF51DF51C22D3
:1017DF00AF1FAE1EAD1DAC1CEF2401F51FE43EF58F
:0A17EF001EE43DF51DE43CF51C224C
:0918C500AF1FAE1EAD1DAC1C22CC
:10003E008F0B8E0A8D098C081218C51201DFAF0BBB
:0C004E00AE0AAD09AC089000040201F9F4
:1015A1008B088A09890A9000041201AF12021DC337
:1015B100E51F9BFBE51E9AFAE51D99F9E51C98F8D4
:1015C100C3120164E440047F018001FFFEFDFC229F
:100DD300020003E493A3F8E493A34003F68001F233
:100DE30008DFF48029E493A3F85407240CC8C33321
:100DF300C4540F4420C8834004F456800146F6DFF0
:100E0300E4800B010204081020408090180EE47E59
:100E1300019360BCA3FF543F30E509541FFEE493E4
:100E2300A360010ECF54C025E060A840B8E493A3AB
:100E3300FAE493A3F8E493A3C8C582C8CAC583CAD6
:100E4300F0A3C8C582C8CAC583CADFE9DEE780BE8E
:0118200000C7
:10005E00BB010CE58229F582E5833AF583E0225057
:10006E0006E92582F8E622BBFE06E92582F8E222A1
:0D007E00E58229F582E5833AF583E49322BB
:10008B00EF8DF0A4A8F0CF8CF0A428CE8DF0A42E89
:02009B00FE2243
:10009D00BC000BBE0029EF8DF084FFADF022E4CC47
:1000AD00F875F008EF2FFFEE33FEEC33FCEE9DEC10
:1000BD00984005FCEE9DFE0FD5F0E9E4CEFD22ED56
:1000CD00F8F5F0EE8420D21CFEADF075F008EF2FA0
:1000DD00FFED33FD4007985006D5F0F222C398FD91
:0500ED000FD5F0EA222E
:1000F200C5F0F8A3E028F0C5F0F8E5821582700299
:060102001583E038F02235
:10010800E88FF0A4CC8BF0A42CFCE98EF0A42CFC96
:100118008AF0EDA42CFCEA8EF0A4CDA8F08BF0A414
:100128002DCC3825F0FDE98FF0A42CCD35F0FCEB73
:100138008EF0A4FEA9F0EB8FF0A4CFC5F02ECD3938
:0F014800FEE43CFCEAA42DCE35F0FDE43CFC22A5
:10138F00C2D5E830E70FB2D5E4C39BFBE49AFAE489
:10139F0099F9E498F8EC30E717B2D51213C5120299
:1013AF00EBE4C39BFBE49AFAE499F9E498F8800321
:1013BF001202EB30D50DE4C39FFFE49EFEE49DFDCA
:0413CF00E49CFC227C
:0D015700CFF4CFCEF4CECDF4CDCCF4CC223D
:10016400EB9FF5F0EA9E42F0E99D42F0E89C45F0F1
:010174002268
:10017500E8600FECC313FCED13FDEE13FEEF13FF68
:03018500D8F1228C
:10018800E86010ECA2E713FCED13FDEE13FEEF138D
:04019800FFD8F0227A
:10019C00E8600FEFC333FFEE33FEED33FDEC33FCC1
:0301AC00D8F12265
:1001AF00BB010DE58229F582E5833AF583020389C8
:1001BF005007E92582F802037DBBFE07E92582F887
:1001CF00020395E58229F582E5833AF5830203A1BF
:1001DF00BB010789828A830203F35005E9F8020302
:0A01EF00E7BBFE05E9F80203FF225A
:1001F900BB010DE58229F582E5833AF5830203F314
:100209005007E92582F80203E7BBFE07E92582F8D2
:040219000203FF22BB
:10021D00BB010789828A830203BE5005E9F80203F8
:10022D00B1BBFE05E9F80203CA89828A830203D7AE
:0C023D00A42582F582E5F03583F58322CC
:10024900D083D082E4937012740193700DA3A393A9
:10025900F8740193F5828883E4737402936C7012C5
:100269007403936D700C7404936E70067405936F28
:0A02790060DDA3A3A3A3A3A380CA22
:10028300EF4E6012EF60010EEDBB010B89828A8392
:10029300F0A3DFFCDEFA2289F05007F709DFFCA99F
:0C02A300F022BBFEFCF309DFFCA9F022F6
:1002AF0075F008758200EF2FFFEE33FECD33CDCC06
:1002BF0033CCC58233C5829BED9AEC99E582984089
:1002CF000CF582EE9BFEED9AFDEC99FC0FD5F0D666
:1002DF00E4CEFBE4CDFAE4CCF9A88222B800C1B990
:1002EF000059BA002DEC8BF084CFCECDFCE5F0CBCE
:1002FF00F97818EF2FFFEE33FEED33FDEC33FCEB07
:10030F0033FB10D703994004EB99FB0FD8E5E4F9C1
:10031F00FA227818EF2FFFEE33FEED33FDEC33FCAE
:10032F00C933C910D7059BE99A4007EC9BFCE99AA2
:10033F00F90FD8E0E4C9FAE4CCFB2275F010EF2FE7
:10034F00FFEE33FEED33FDCC33CCC833C810D707E7
:10035F009BEC9AE899400AED9BFDEC9AFCE899F822
:0E036F000FD5F0DAE4CDFBE4CCFAE4C8F922B5
:0C037D00E6FC08E6FD08E6FE08E6FF22AC
:0C038900E0FCA3E0FDA3E0FEA3E0FF22E7
:0C039500E2FC08E2FD08E2FE08E2FF22A4
:1003A100E493FC740193FD740293FE740393FF22A2
:0D03B100E6FB08E6F908E6FA08E6CBF822BC
:0C03BE00E0F8A3E0F9A3E0FAA3E0FB22C2
:0D03CA00E2FB08E2F908E2FA08E2CBF822B3
:1003D700E493F8740193F9740293FA740393FB227C
:0C03E700ECF608EDF608EEF608EFF62242
:0C03F300ECF0A3EDF0A3EEF0A3EFF0227D
:0C03FF00ECF208EDF208EEF208EFF2223A
:00000001FF
